{"contracts/VotingManagement.sol":{"VotingManagement":{"abi":[{"inputs":[],"stateMutability":"nonpayable","type":"constructor"},{"inputs":[{"internalType":"address","name":"owner","type":"address"}],"name":"OwnableInvalidOwner","type":"error"},{"inputs":[{"internalType":"address","name":"account","type":"address"}],"name":"OwnableUnauthorizedAccount","type":"error"},{"anonymous":false,"inputs":[{"indexed":false,"internalType":"uint256","name":"candidateId","type":"uint256"},{"indexed":false,"internalType":"string","name":"name","type":"string"}],"name":"CandidateAdded","type":"event"},{"anonymous":false,"inputs":[{"indexed":false,"internalType":"enum VotingManagement.ElectionState","name":"newState","type":"uint8"}],"name":"ElectionStateChanged","type":"event"},{"anonymous":false,"inputs":[{"indexed":true,"internalType":"address","name":"previousOwner","type":"address"},{"indexed":true,"internalType":"address","name":"newOwner","type":"address"}],"name":"OwnershipTransferred","type":"event"},{"anonymous":false,"inputs":[{"indexed":false,"internalType":"address","name":"voter","type":"address"},{"indexed":false,"internalType":"uint256","name":"candidateId","type":"uint256"}],"name":"VoteCast","type":"event"},{"anonymous":false,"inputs":[{"indexed":false,"internalType":"address","name":"voter","type":"address"},{"indexed":false,"internalType":"string","name":"name","type":"string"}],"name":"VoterVerified","type":"event"},{"inputs":[{"internalType":"string","name":"_name","type":"string"},{"internalType":"string","name":"_party","type":"string"},{"internalType":"string","name":"_symbolUrl","type":"string"}],"name":"addCandidate","outputs":[],"stateMutability":"nonpayable","type":"function"},{"inputs":[{"internalType":"uint256","name":"","type":"uint256"}],"name":"candidates","outputs":[{"internalType":"uint256","name":"id","type":"uint256"},{"internalType":"string","name":"name","type":"string"},{"internalType":"string","name":"party","type":"string"},{"internalType":"string","name":"symbolUrl","type":"string"},{"internalType":"uint256","name":"voteCount","type":"uint256"}],"stateMutability":"view","type":"function"},{"inputs":[{"internalType":"uint256","name":"_candidateId","type":"uint256"}],"name":"castVote","outputs":[],"stateMutability":"nonpayable","type":"function"},{"inputs":[],"name":"currentState","outputs":[{"internalType":"enum VotingManagement.ElectionState","name":"","type":"uint8"}],"stateMutability":"view","type":"function"},{"inputs":[],"name":"endVoting","outputs":[],"stateMutability":"nonpayable","type":"function"},{"inputs":[],"name":"getCandidates","outputs":[{"components":[{"internalType":"uint256","name":"id","type":"uint256"},{"internalType":"string","name":"name","type":"string"},{"internalType":"string","name":"party","type":"string"},{"internalType":"string","name":"symbolUrl","type":"string"},{"internalType":"uint256","name":"voteCount","type":"uint256"}],"internalType":"struct VotingManagement.Candidate[]","name":"","type":"tuple[]"}],"stateMutability":"view","type":"function"},{"inputs":[],"name":"getWhitelistedVoters","outputs":[{"components":[{"internalType":"address","name":"walletAddress","type":"address"},{"internalType":"string","name":"name","type":"string"}],"internalType":"struct VotingManagement.Voter[]","name":"","type":"tuple[]"}],"stateMutability":"view","type":"function"},{"inputs":[{"internalType":"address","name":"","type":"address"}],"name":"hasVoted","outputs":[{"internalType":"bool","name":"","type":"bool"}],"stateMutability":"view","type":"function"},{"inputs":[{"internalType":"address","name":"","type":"address"}],"name":"isVerifiedVoter","outputs":[{"internalType":"bool","name":"","type":"bool"}],"stateMutability":"view","type":"function"},{"inputs":[],"name":"owner","outputs":[{"internalType":"address","name":"","type":"address"}],"stateMutability":"view","type":"function"},{"inputs":[],"name":"renounceOwnership","outputs":[],"stateMutability":"nonpayable","type":"function"},{"inputs":[],"name":"startVoting","outputs":[],"stateMutability":"nonpayable","type":"function"},{"inputs":[],"name":"totalVotesCast","outputs":[{"internalType":"uint256","name":"","type":"uint256"}],"stateMutability":"view","type":"function"},{"inputs":[{"internalType":"address","name":"newOwner","type":"address"}],"name":"transferOwnership","outputs":[],"stateMutability":"nonpayable","type":"function"},{"inputs":[{"internalType":"address","name":"_voter","type":"address"},{"internalType":"string","name":"_name","type":"string"}],"name":"whitelistVoter","outputs":[],"stateMutability":"nonpayable","type":"function"},{"inputs":[{"internalType":"uint256","name":"","type":"uint256"}],"name":"whitelistedVotersList","outputs":[{"internalType":"address","name":"walletAddress","type":"address"},{"internalType":"string","name":"name","type":"string"}],"stateMutability":"view","type":"function"}],"evm":{"bytecode":{"linkReferences":{},"object":"60806040523480156200001157600080fd5b5033600073ffffffffffffffffffffffffffffffffffffffff168173ffffffffffffffffffffffffffffffffffffffff1603620000885760006040517f1e4fbdf70000000000000000000000000000000000000000000000000000000081526004016200007f9190620001d6565b60405180910390fd5b6200009981620000cd60201b60201c565b5060008060146101000a81548160ff02191690836002811115620000c257620000c1620001f3565b5b021790555062000222565b60008060009054906101000a900473ffffffffffffffffffffffffffffffffffffffff169050816000806101000a81548173ffffffffffffffffffffffffffffffffffffffff021916908373ffffffffffffffffffffffffffffffffffffffff1602179055508173ffffffffffffffffffffffffffffffffffffffff168173ffffffffffffffffffffffffffffffffffffffff167f8be0079c531659141344cd1fd0a4f28419497f9722a3daafe3b4186f6b6457e060405160405180910390a35050565b600073ffffffffffffffffffffffffffffffffffffffff82169050919050565b6000620001be8262000191565b9050919050565b620001d081620001b1565b82525050565b6000602082019050620001ed6000830184620001c5565b92915050565b7f4e487b7100000000000000000000000000000000000000000000000000000000600052602160045260246000fd5b61232080620002326000396000f3fe608060405234801561001057600080fd5b50600436106101005760003560e01c80637de418d511610097578063c3403ddf11610066578063c3403ddf14610267578063dc03d48514610271578063dfb6b1e8146102a2578063f2fde38b146102d257610100565b80637de418d5146101f35780638da5cb5b146102115780639153bfb81461022f578063ad71f8dc1461024b57610100565b80633477ee2e116100d35780633477ee2e1461017b5780633eb76b9c146101af578063715018a6146101cb57806378905e2e146101d557610100565b806306a49fce1461010557806309eef43e146101235780630c3f6acf146101535780631ec6b60a14610171575b600080fd5b61010d6102ee565b60405161011a919061159c565b60405180910390f35b61013d60048036038101906101389190611630565b610517565b60405161014a9190611678565b60405180910390f35b61015b610537565b604051610168919061170a565b60405180910390f35b61017961054a565b005b61019560048036038101906101909190611751565b61062f565b6040516101a69594939291906117d7565b60405180910390f35b6101c960048036038101906101c49190611751565b61080d565b005b6101d3610ad0565b005b6101dd610ae4565b6040516101ea919061194d565b60405180910390f35b6101fb610c2b565b604051610208919061196f565b60405180910390f35b610219610c31565b6040516102269190611999565b60405180910390f35b61024960048036038101906102449190611a19565b610c5a565b005b61026560048036038101906102609190611ba9565b610e7f565b005b61026f610ff3565b005b61028b60048036038101906102869190611751565b6110d8565b604051610299929190611c50565b60405180910390f35b6102bc60048036038101906102b79190611630565b6111b4565b6040516102c99190611678565b60405180910390f35b6102ec60048036038101906102e79190611630565b6111d4565b005b60606003805480602002602001604051908101604052809291908181526020016000905b8282101561050e57838290600052602060002090600502016040518060a00160405290816000820154815260200160018201805461034f90611caf565b80601f016020809104026020016040519081016040528092919081815260200182805461037b90611caf565b80156103c85780601f1061039d576101008083540402835291602001916103c8565b820191906000526020600020905b8154815290600101906020018083116103ab57829003601f168201915b505050505081526020016002820180546103e190611caf565b80601f016020809104026020016040519081016040528092919081815260200182805461040d90611caf565b801561045a5780601f1061042f5761010080835404028352916020019161045a565b820191906000526020600020905b81548152906001019060200180831161043d57829003601f168201915b5050505050815260200160038201805461047390611caf565b80601f016020809104026020016040519081016040528092919081815260200182805461049f90611caf565b80156104ec5780601f106104c1576101008083540402835291602001916104ec565b820191906000526020600020905b8154815290600101906020018083116104cf57829003601f168201915b5050505050815260200160048201548152505081526020019060010190610312565b50505050905090565b60026020528060005260406000206000915054906101000a900460ff1681565b600060149054906101000a900460ff1681565b61055261125a565b600080600281111561056757610566611693565b5b600060149054906101000a900460ff16600281111561058957610588611693565b5b146105c9576040517f08c379a00000000000000000000000000000000000000000000000000000000081526004016105c090611d52565b60405180910390fd5b6001600060146101000a81548160ff021916908360028111156105ef576105ee611693565b5b02179055507f82aa0cc22cbb103bd5f28a40c65b9e63f2df333bbb70c6c9128eb83d7cb1041d6001604051610624919061170a565b60405180910390a150565b6003818154811061063f57600080fd5b906000526020600020906005020160009150905080600001549080600101805461066890611caf565b80601f016020809104026020016040519081016040528092919081815260200182805461069490611caf565b80156106e15780601f106106b6576101008083540402835291602001916106e1565b820191906000526020600020905b8154815290600101906020018083116106c457829003601f168201915b5050505050908060020180546106f690611caf565b80601f016020809104026020016040519081016040528092919081815260200182805461072290611caf565b801561076f5780601f106107445761010080835404028352916020019161076f565b820191906000526020600020905b81548152906001019060200180831161075257829003601f168201915b50505050509080600301805461078490611caf565b80601f01602080910402602001604051908101604052809291908181526020018280546107b090611caf565b80156107fd5780601f106107d2576101008083540402835291602001916107fd565b820191906000526020600020905b8154815290600101906020018083116107e057829003601f168201915b5050505050908060040154905085565b600180600281111561082257610821611693565b5b600060149054906101000a900460ff16600281111561084457610843611693565b5b14610884576040517f08c379a000000000000000000000000000000000000000000000000000000000815260040161087b90611d52565b60405180910390fd5b600160003373ffffffffffffffffffffffffffffffffffffffff1673ffffffffffffffffffffffffffffffffffffffff16815260200190815260200160002060009054906101000a900460ff16610910576040517f08c379a000000000000000000000000000000000000000000000000000000000815260040161090790611dbe565b60405180910390fd5b600260003373ffffffffffffffffffffffffffffffffffffffff1673ffffffffffffffffffffffffffffffffffffffff16815260200190815260200160002060009054906101000a900460ff161561099d576040517f08c379a000000000000000000000000000000000000000000000000000000000815260040161099490611e2a565b60405180910390fd5b60038054905082106109e4576040517f08c379a00000000000000000000000000000000000000000000000000000000081526004016109db90611e96565b60405180910390fd5b6001600260003373ffffffffffffffffffffffffffffffffffffffff1673ffffffffffffffffffffffffffffffffffffffff16815260200190815260200160002060006101000a81548160ff021916908315150217905550600160038381548110610a5257610a51611eb6565b5b90600052602060002090600502016004016000828254610a729190611f14565b92505081905550600160056000828254610a8c9190611f14565b925050819055507fa36cc2bebb74db33e9f88110a07ef56e1b31b24b4c4f51b54b1664266e29f45b3383604051610ac4929190611f48565b60405180910390a15050565b610ad861125a565b610ae260006112e1565b565b60606004805480602002602001604051908101604052809291908181526020016000905b82821015610c2257838290600052602060002090600202016040518060400160405290816000820160009054906101000a900473ffffffffffffffffffffffffffffffffffffffff1673ffffffffffffffffffffffffffffffffffffffff1673ffffffffffffffffffffffffffffffffffffffff168152602001600182018054610b9190611caf565b80601f0160208091040260200160405190810160405280929190818152602001828054610bbd90611caf565b8015610c0a5780601f10610bdf57610100808354040283529160200191610c0a565b820191906000526020600020905b815481529060010190602001808311610bed57829003601f168201915b50505050508152505081526020019060010190610b08565b50505050905090565b60055481565b60008060009054906101000a900473ffffffffffffffffffffffffffffffffffffffff16905090565b610c6261125a565b600160008473ffffffffffffffffffffffffffffffffffffffff1673ffffffffffffffffffffffffffffffffffffffff16815260200190815260200160002060009054906101000a900460ff1615610cef576040517f08c379a0000000000000000000000000000000000000000000000000000000008152600401610ce690611fbd565b60405180910390fd5b60018060008573ffffffffffffffffffffffffffffffffffffffff1673ffffffffffffffffffffffffffffffffffffffff16815260200190815260200160002060006101000a81548160ff021916908315150217905550600460405180604001604052808573ffffffffffffffffffffffffffffffffffffffff16815260200184848080601f016020809104026020016040519081016040528093929190818152602001838380828437600081840152601f19601f82011690508083019250505050505050815250908060018154018082558091505060019003906000526020600020906002020160009091909190915060008201518160000160006101000a81548173ffffffffffffffffffffffffffffffffffffffff021916908373ffffffffffffffffffffffffffffffffffffffff1602179055506020820151816001019081610e3c9190612189565b5050507f02d58685ec3349d0400ea2990a81e813f67c21d1a878ba6c09ca0893df4f6cbb838383604051610e7293929190612288565b60405180910390a1505050565b610e8761125a565b6000806002811115610e9c57610e9b611693565b5b600060149054906101000a900460ff166002811115610ebe57610ebd611693565b5b14610efe576040517f08c379a0000000000000000000000000000000000000000000000000000000008152600401610ef590611d52565b60405180910390fd5b6000600380549050905060036040518060a0016040528083815260200187815260200186815260200185815260200160008152509080600181540180825580915050600190039060005260206000209060050201600090919091909150600082015181600001556020820151816001019081610f7a9190612189565b506040820151816002019081610f909190612189565b506060820151816003019081610fa69190612189565b506080820151816004015550507fe83b2a43e7e82d975c8a0a6d2f045153c869e111136a34d1889ab7b598e396a38186604051610fe49291906122ba565b60405180910390a15050505050565b610ffb61125a565b60018060028111156110105761100f611693565b5b600060149054906101000a900460ff16600281111561103257611031611693565b5b14611072576040517f08c379a000000000000000000000000000000000000000000000000000000000815260040161106990611d52565b60405180910390fd5b6002600060146101000a81548160ff0219169083600281111561109857611097611693565b5b02179055507f82aa0cc22cbb103bd5f28a40c65b9e63f2df333bbb70c6c9128eb83d7cb1041d60026040516110cd919061170a565b60405180910390a150565b600481815481106110e857600080fd5b90600052602060002090600202016000915090508060000160009054906101000a900473ffffffffffffffffffffffffffffffffffffffff169080600101805461113190611caf565b80601f016020809104026020016040519081016040528092919081815260200182805461115d90611caf565b80156111aa5780601f1061117f576101008083540402835291602001916111aa565b820191906000526020600020905b81548152906001019060200180831161118d57829003601f168201915b5050505050905082565b60016020528060005260406000206000915054906101000a900460ff1681565b6111dc61125a565b600073ffffffffffffffffffffffffffffffffffffffff168173ffffffffffffffffffffffffffffffffffffffff160361124e5760006040517f1e4fbdf70000000000000000000000000000000000000000000000000000000081526004016112459190611999565b60405180910390fd5b611257816112e1565b50565b6112626113a5565b73ffffffffffffffffffffffffffffffffffffffff16611280610c31565b73ffffffffffffffffffffffffffffffffffffffff16146112df576112a36113a5565b6040517f118cdaa70000000000000000000000000000000000000000000000000000000081526004016112d69190611999565b60405180910390fd5b565b60008060009054906101000a900473ffffffffffffffffffffffffffffffffffffffff169050816000806101000a81548173ffffffffffffffffffffffffffffffffffffffff021916908373ffffffffffffffffffffffffffffffffffffffff1602179055508173ffffffffffffffffffffffffffffffffffffffff168173ffffffffffffffffffffffffffffffffffffffff167f8be0079c531659141344cd1fd0a4f28419497f9722a3daafe3b4186f6b6457e060405160405180910390a35050565b600033905090565b600081519050919050565b600082825260208201905092915050565b6000819050602082019050919050565b6000819050919050565b6113ec816113d9565b82525050565b600081519050919050565b600082825260208201905092915050565b60005b8381101561142c578082015181840152602081019050611411565b60008484015250505050565b6000601f19601f8301169050919050565b6000611454826113f2565b61145e81856113fd565b935061146e81856020860161140e565b61147781611438565b840191505092915050565b600060a08301600083015161149a60008601826113e3565b50602083015184820360208601526114b28282611449565b915050604083015184820360408601526114cc8282611449565b915050606083015184820360608601526114e68282611449565b91505060808301516114fb60808601826113e3565b508091505092915050565b60006115128383611482565b905092915050565b6000602082019050919050565b6000611532826113ad565b61153c81856113b8565b93508360208202850161154e856113c9565b8060005b8581101561158a578484038952815161156b8582611506565b94506115768361151a565b925060208a01995050600181019050611552565b50829750879550505050505092915050565b600060208201905081810360008301526115b68184611527565b905092915050565b6000604051905090565b600080fd5b600080fd5b600073ffffffffffffffffffffffffffffffffffffffff82169050919050565b60006115fd826115d2565b9050919050565b61160d816115f2565b811461161857600080fd5b50565b60008135905061162a81611604565b92915050565b600060208284031215611646576116456115c8565b5b60006116548482850161161b565b91505092915050565b60008115159050919050565b6116728161165d565b82525050565b600060208201905061168d6000830184611669565b92915050565b7f4e487b7100000000000000000000000000000000000000000000000000000000600052602160045260246000fd5b600381106116d3576116d2611693565b5b50565b60008190506116e4826116c2565b919050565b60006116f4826116d6565b9050919050565b611704816116e9565b82525050565b600060208201905061171f60008301846116fb565b92915050565b61172e816113d9565b811461173957600080fd5b50565b60008135905061174b81611725565b92915050565b600060208284031215611767576117666115c8565b5b60006117758482850161173c565b91505092915050565b611787816113d9565b82525050565b600082825260208201905092915050565b60006117a9826113f2565b6117b3818561178d565b93506117c381856020860161140e565b6117cc81611438565b840191505092915050565b600060a0820190506117ec600083018861177e565b81810360208301526117fe818761179e565b90508181036040830152611812818661179e565b90508181036060830152611826818561179e565b9050611835608083018461177e565b9695505050505050565b600081519050919050565b600082825260208201905092915050565b6000819050602082019050919050565b611874816115f2565b82525050565b6000604083016000830151611892600086018261186b565b50602083015184820360208601526118aa8282611449565b9150508091505092915050565b60006118c3838361187a565b905092915050565b6000602082019050919050565b60006118e38261183f565b6118ed818561184a565b9350836020820285016118ff8561185b565b8060005b8581101561193b578484038952815161191c85826118b7565b9450611927836118cb565b925060208a01995050600181019050611903565b50829750879550505050505092915050565b6000602082019050818103600083015261196781846118d8565b905092915050565b6000602082019050611984600083018461177e565b92915050565b611993816115f2565b82525050565b60006020820190506119ae600083018461198a565b92915050565b600080fd5b600080fd5b600080fd5b60008083601f8401126119d9576119d86119b4565b5b8235905067ffffffffffffffff8111156119f6576119f56119b9565b5b602083019150836001820283011115611a1257611a116119be565b5b9250929050565b600080600060408486031215611a3257611a316115c8565b5b6000611a408682870161161b565b935050602084013567ffffffffffffffff811115611a6157611a606115cd565b5b611a6d868287016119c3565b92509250509250925092565b600080fd5b7f4e487b7100000000000000000000000000000000000000000000000000000000600052604160045260246000fd5b611ab682611438565b810181811067ffffffffffffffff82111715611ad557611ad4611a7e565b5b80604052505050565b6000611ae86115be565b9050611af48282611aad565b919050565b600067ffffffffffffffff821115611b1457611b13611a7e565b5b611b1d82611438565b9050602081019050919050565b82818337600083830152505050565b6000611b4c611b4784611af9565b611ade565b905082815260208101848484011115611b6857611b67611a79565b5b611b73848285611b2a565b509392505050565b600082601f830112611b9057611b8f6119b4565b5b8135611ba0848260208601611b39565b91505092915050565b600080600060608486031215611bc257611bc16115c8565b5b600084013567ffffffffffffffff811115611be057611bdf6115cd565b5b611bec86828701611b7b565b935050602084013567ffffffffffffffff811115611c0d57611c0c6115cd565b5b611c1986828701611b7b565b925050604084013567ffffffffffffffff811115611c3a57611c396115cd565b5b611c4686828701611b7b565b9150509250925092565b6000604082019050611c65600083018561198a565b8181036020830152611c77818461179e565b90509392505050565b7f4e487b7100000000000000000000000000000000000000000000000000000000600052602260045260246000fd5b60006002820490506001821680611cc757607f821691505b602082108103611cda57611cd9611c80565b5b50919050565b7f496e76616c696420656c656374696f6e20737461746520666f7220746869732060008201527f616374696f6e0000000000000000000000000000000000000000000000000000602082015250565b6000611d3c60268361178d565b9150611d4782611ce0565b604082019050919050565b60006020820190508181036000830152611d6b81611d2f565b9050919050565b7f4e6f74206120766572696669656420766f746572000000000000000000000000600082015250565b6000611da860148361178d565b9150611db382611d72565b602082019050919050565b60006020820190508181036000830152611dd781611d9b565b9050919050565b7f416c726561647920766f74656400000000000000000000000000000000000000600082015250565b6000611e14600d8361178d565b9150611e1f82611dde565b602082019050919050565b60006020820190508181036000830152611e4381611e07565b9050919050565b7f496e76616c69642063616e646964617465204944000000000000000000000000600082015250565b6000611e8060148361178d565b9150611e8b82611e4a565b602082019050919050565b60006020820190508181036000830152611eaf81611e73565b9050919050565b7f4e487b7100000000000000000000000000000000000000000000000000000000600052603260045260246000fd5b7f4e487b7100000000000000000000000000000000000000000000000000000000600052601160045260246000fd5b6000611f1f826113d9565b9150611f2a836113d9565b9250828201905080821115611f4257611f41611ee5565b5b92915050565b6000604082019050611f5d600083018561198a565b611f6a602083018461177e565b9392505050565b7f566f74657220616c726561647920766572696669656400000000000000000000600082015250565b6000611fa760168361178d565b9150611fb282611f71565b602082019050919050565b60006020820190508181036000830152611fd681611f9a565b9050919050565b60008190508160005260206000209050919050565b60006020601f8301049050919050565b600082821b905092915050565b60006008830261203f7fffffffffffffffffffffffffffffffffffffffffffffffffffffffffffffffff82612002565b6120498683612002565b95508019841693508086168417925050509392505050565b6000819050919050565b600061208661208161207c846113d9565b612061565b6113d9565b9050919050565b6000819050919050565b6120a08361206b565b6120b46120ac8261208d565b84845461200f565b825550505050565b600090565b6120c96120bc565b6120d4818484612097565b505050565b5b818110156120f8576120ed6000826120c1565b6001810190506120da565b5050565b601f82111561213d5761210e81611fdd565b61211784611ff2565b81016020851015612126578190505b61213a61213285611ff2565b8301826120d9565b50505b505050565b600082821c905092915050565b600061216060001984600802612142565b1980831691505092915050565b6000612179838361214f565b9150826002028217905092915050565b612192826113f2565b67ffffffffffffffff8111156121ab576121aa611a7e565b5b6121b58254611caf565b6121c08282856120fc565b600060209050601f8311600181146121f357600084156121e1578287015190505b6121eb858261216d565b865550612253565b601f19841661220186611fdd565b60005b8281101561222957848901518255600182019150602085019450602081019050612204565b868310156122465784890151612242601f89168261214f565b8355505b6001600288020188555050505b505050505050565b6000612267838561178d565b9350612274838584611b2a565b61227d83611438565b840190509392505050565b600060408201905061229d600083018661198a565b81810360208301526122b081848661225b565b9050949350505050565b60006040820190506122cf600083018561177e565b81810360208301526122e1818461179e565b9050939250505056fea26469706673582212201ec0cceaf4847e3173a710412898efea33b9d18231a1e4494c21cbfc4c18bf1f64736f6c63430008140033","opcodes":"PUSH1 0x80 PUSH1 0x40 MSTORE CALLVALUE DUP1 ISZERO PUSH3 0x11 JUMPI PUSH1 0x0 DUP1 REVERT JUMPDEST POP CALLER PUSH1 0x0 PUSH20 0xFFFFFFFFFFFFFFFFFFFFFFFFFFFFFFFFFFFFFFFF AND DUP2 PUSH20 0xFFFFFFFFFFFFFFFFFFFFFFFFFFFFFFFFFFFFFFFF AND SUB PUSH3 0x88 JUMPI PUSH1 0x0 PUSH1 0x40 MLOAD PUSH32 0x1E4FBDF700000000000000000000000000000000000000000000000000000000 DUP2 MSTORE PUSH1 0x4 ADD PUSH3 0x7F SWAP2 SWAP1 PUSH3 0x1D6 JUMP JUMPDEST PUSH1 0x40 MLOAD DUP1 SWAP2 SUB SWAP1 REVERT JUMPDEST PUSH3 0x99 DUP2 PUSH3 0xCD PUSH1 0x20 SHL PUSH1 0x20 SHR JUMP JUMPDEST POP PUSH1 0x0 DUP1 PUSH1 0x14 PUSH2 0x100 EXP DUP2 SLOAD DUP2 PUSH1 0xFF MUL NOT AND SWAP1 DUP4 PUSH1 0x2 DUP2 GT ISZERO PUSH3 0xC2 JUMPI PUSH3 0xC1 PUSH3 0x1F3 JUMP JUMPDEST JUMPDEST MUL OR SWAP1 SSTORE POP PUSH3 0x222 JUMP JUMPDEST PUSH1 0x0 DUP1 PUSH1 0x0 SWAP1 SLOAD SWAP1 PUSH2 0x100 EXP SWAP1 DIV PUSH20 0xFFFFFFFFFFFFFFFFFFFFFFFFFFFFFFFFFFFFFFFF AND SWAP1 POP DUP2 PUSH1 0x0 DUP1 PUSH2 0x100 EXP DUP2 SLOAD DUP2 PUSH20 0xFFFFFFFFFFFFFFFFFFFFFFFFFFFFFFFFFFFFFFFF MUL NOT AND SWAP1 DUP4 PUSH20 0xFFFFFFFFFFFFFFFFFFFFFFFFFFFFFFFFFFFFFFFF AND MUL OR SWAP1 SSTORE POP DUP2 PUSH20 0xFFFFFFFFFFFFFFFFFFFFFFFFFFFFFFFFFFFFFFFF AND DUP2 PUSH20 0xFFFFFFFFFFFFFFFFFFFFFFFFFFFFFFFFFFFFFFFF AND PUSH32 0x8BE0079C531659141344CD1FD0A4F28419497F9722A3DAAFE3B4186F6B6457E0 PUSH1 0x40 MLOAD PUSH1 0x40 MLOAD DUP1 SWAP2 SUB SWAP1 LOG3 POP POP JUMP JUMPDEST PUSH1 0x0 PUSH20 0xFFFFFFFFFFFFFFFFFFFFFFFFFFFFFFFFFFFFFFFF DUP3 AND SWAP1 POP SWAP2 SWAP1 POP JUMP JUMPDEST PUSH1 0x0 PUSH3 0x1BE DUP3 PUSH3 0x191 JUMP JUMPDEST SWAP1 POP SWAP2 SWAP1 POP JUMP JUMPDEST PUSH3 0x1D0 DUP2 PUSH3 0x1B1 JUMP JUMPDEST DUP3 MSTORE POP POP JUMP JUMPDEST PUSH1 0x0 PUSH1 0x20 DUP3 ADD SWAP1 POP PUSH3 0x1ED PUSH1 0x0 DUP4 ADD DUP5 PUSH3 0x1C5 JUMP JUMPDEST SWAP3 SWAP2 POP POP JUMP JUMPDEST PUSH32 0x4E487B7100000000000000000000000000000000000000000000000000000000 PUSH1 0x0 MSTORE PUSH1 0x21 PUSH1 0x4 MSTORE PUSH1 0x24 PUSH1 0x0 REVERT JUMPDEST PUSH2 0x2320 DUP1 PUSH3 0x232 PUSH1 0x0 CODECOPY PUSH1 0x0 RETURN INVALID PUSH1 0x80 PUSH1 0x40 MSTORE CALLVALUE DUP1 ISZERO PUSH2 0x10 JUMPI PUSH1 0x0 DUP1 REVERT JUMPDEST POP PUSH1 0x4 CALLDATASIZE LT PUSH2 0x100 JUMPI PUSH1 0x0 CALLDATALOAD PUSH1 0xE0 SHR DUP1 PUSH4 0x7DE418D5 GT PUSH2 0x97 JUMPI DUP1 PUSH4 0xC3403DDF GT PUSH2 0x66 JUMPI DUP1 PUSH4 0xC3403DDF EQ PUSH2 0x267 JUMPI DUP1 PUSH4 0xDC03D485 EQ PUSH2 0x271 JUMPI DUP1 PUSH4 0xDFB6B1E8 EQ PUSH2 0x2A2 JUMPI DUP1 PUSH4 0xF2FDE38B EQ PUSH2 0x2D2 JUMPI PUSH2 0x100 JUMP JUMPDEST DUP1 PUSH4 0x7DE418D5 EQ PUSH2 0x1F3 JUMPI DUP1 PUSH4 0x8DA5CB5B EQ PUSH2 0x211 JUMPI DUP1 PUSH4 0x9153BFB8 EQ PUSH2 0x22F JUMPI DUP1 PUSH4 0xAD71F8DC EQ PUSH2 0x24B JUMPI PUSH2 0x100 JUMP JUMPDEST DUP1 PUSH4 0x3477EE2E GT PUSH2 0xD3 JUMPI DUP1 PUSH4 0x3477EE2E EQ PUSH2 0x17B JUMPI DUP1 PUSH4 0x3EB76B9C EQ PUSH2 0x1AF JUMPI DUP1 PUSH4 0x715018A6 EQ PUSH2 0x1CB JUMPI DUP1 PUSH4 0x78905E2E EQ PUSH2 0x1D5 JUMPI PUSH2 0x100 JUMP JUMPDEST DUP1 PUSH4 0x6A49FCE EQ PUSH2 0x105 JUMPI DUP1 PUSH4 0x9EEF43E EQ PUSH2 0x123 JUMPI DUP1 PUSH4 0xC3F6ACF EQ PUSH2 0x153 JUMPI DUP1 PUSH4 0x1EC6B60A EQ PUSH2 0x171 JUMPI JUMPDEST PUSH1 0x0 DUP1 REVERT JUMPDEST PUSH2 0x10D PUSH2 0x2EE JUMP JUMPDEST PUSH1 0x40 MLOAD PUSH2 0x11A SWAP2 SWAP1 PUSH2 0x159C JUMP JUMPDEST PUSH1 0x40 MLOAD DUP1 SWAP2 SUB SWAP1 RETURN JUMPDEST PUSH2 0x13D PUSH1 0x4 DUP1 CALLDATASIZE SUB DUP2 ADD SWAP1 PUSH2 0x138 SWAP2 SWAP1 PUSH2 0x1630 JUMP JUMPDEST PUSH2 0x517 JUMP JUMPDEST PUSH1 0x40 MLOAD PUSH2 0x14A SWAP2 SWAP1 PUSH2 0x1678 JUMP JUMPDEST PUSH1 0x40 MLOAD DUP1 SWAP2 SUB SWAP1 RETURN JUMPDEST PUSH2 0x15B PUSH2 0x537 JUMP JUMPDEST PUSH1 0x40 MLOAD PUSH2 0x168 SWAP2 SWAP1 PUSH2 0x170A JUMP JUMPDEST PUSH1 0x40 MLOAD DUP1 SWAP2 SUB SWAP1 RETURN JUMPDEST PUSH2 0x179 PUSH2 0x54A JUMP JUMPDEST STOP JUMPDEST PUSH2 0x195 PUSH1 0x4 DUP1 CALLDATASIZE SUB DUP2 ADD SWAP1 PUSH2 0x190 SWAP2 SWAP1 PUSH2 0x1751 JUMP JUMPDEST PUSH2 0x62F JUMP JUMPDEST PUSH1 0x40 MLOAD PUSH2 0x1A6 SWAP6 SWAP5 SWAP4 SWAP3 SWAP2 SWAP1 PUSH2 0x17D7 JUMP JUMPDEST PUSH1 0x40 MLOAD DUP1 SWAP2 SUB SWAP1 RETURN JUMPDEST PUSH2 0x1C9 PUSH1 0x4 DUP1 CALLDATASIZE SUB DUP2 ADD SWAP1 PUSH2 0x1C4 SWAP2 SWAP1 PUSH2 0x1751 JUMP JUMPDEST PUSH2 0x80D JUMP JUMPDEST STOP JUMPDEST PUSH2 0x1D3 PUSH2 0xAD0 JUMP JUMPDEST STOP JUMPDEST PUSH2 0x1DD PUSH2 0xAE4 JUMP JUMPDEST PUSH1 0x40 MLOAD PUSH2 0x1EA SWAP2 SWAP1 PUSH2 0x194D JUMP JUMPDEST PUSH1 0x40 MLOAD DUP1 SWAP2 SUB SWAP1 RETURN JUMPDEST PUSH2 0x1FB PUSH2 0xC2B JUMP JUMPDEST PUSH1 0x40 MLOAD PUSH2 0x208 SWAP2 SWAP1 PUSH2 0x196F JUMP JUMPDEST PUSH1 0x40 MLOAD DUP1 SWAP2 SUB SWAP1 RETURN JUMPDEST PUSH2 0x219 PUSH2 0xC31 JUMP JUMPDEST PUSH1 0x40 MLOAD PUSH2 0x226 SWAP2 SWAP1 PUSH2 0x1999 JUMP JUMPDEST PUSH1 0x40 MLOAD DUP1 SWAP2 SUB SWAP1 RETURN JUMPDEST PUSH2 0x249 PUSH1 0x4 DUP1 CALLDATASIZE SUB DUP2 ADD SWAP1 PUSH2 0x244 SWAP2 SWAP1 PUSH2 0x1A19 JUMP JUMPDEST PUSH2 0xC5A JUMP JUMPDEST STOP JUMPDEST PUSH2 0x265 PUSH1 0x4 DUP1 CALLDATASIZE SUB DUP2 ADD SWAP1 PUSH2 0x260 SWAP2 SWAP1 PUSH2 0x1BA9 JUMP JUMPDEST PUSH2 0xE7F JUMP JUMPDEST STOP JUMPDEST PUSH2 0x26F PUSH2 0xFF3 JUMP JUMPDEST STOP JUMPDEST PUSH2 0x28B PUSH1 0x4 DUP1 CALLDATASIZE SUB DUP2 ADD SWAP1 PUSH2 0x286 SWAP2 SWAP1 PUSH2 0x1751 JUMP JUMPDEST PUSH2 0x10D8 JUMP JUMPDEST PUSH1 0x40 MLOAD PUSH2 0x299 SWAP3 SWAP2 SWAP1 PUSH2 0x1C50 JUMP JUMPDEST PUSH1 0x40 MLOAD DUP1 SWAP2 SUB SWAP1 RETURN JUMPDEST PUSH2 0x2BC PUSH1 0x4 DUP1 CALLDATASIZE SUB DUP2 ADD SWAP1 PUSH2 0x2B7 SWAP2 SWAP1 PUSH2 0x1630 JUMP JUMPDEST PUSH2 0x11B4 JUMP JUMPDEST PUSH1 0x40 MLOAD PUSH2 0x2C9 SWAP2 SWAP1 PUSH2 0x1678 JUMP JUMPDEST PUSH1 0x40 MLOAD DUP1 SWAP2 SUB SWAP1 RETURN JUMPDEST PUSH2 0x2EC PUSH1 0x4 DUP1 CALLDATASIZE SUB DUP2 ADD SWAP1 PUSH2 0x2E7 SWAP2 SWAP1 PUSH2 0x1630 JUMP JUMPDEST PUSH2 0x11D4 JUMP JUMPDEST STOP JUMPDEST PUSH1 0x60 PUSH1 0x3 DUP1 SLOAD DUP1 PUSH1 0x20 MUL PUSH1 0x20 ADD PUSH1 0x40 MLOAD SWAP1 DUP2 ADD PUSH1 0x40 MSTORE DUP1 SWAP3 SWAP2 SWAP1 DUP2 DUP2 MSTORE PUSH1 0x20 ADD PUSH1 0x0 SWAP1 JUMPDEST DUP3 DUP3 LT ISZERO PUSH2 0x50E JUMPI DUP4 DUP3 SWAP1 PUSH1 0x0 MSTORE PUSH1 0x20 PUSH1 0x0 KECCAK256 SWAP1 PUSH1 0x5 MUL ADD PUSH1 0x40 MLOAD DUP1 PUSH1 0xA0 ADD PUSH1 0x40 MSTORE SWAP1 DUP2 PUSH1 0x0 DUP3 ADD SLOAD DUP2 MSTORE PUSH1 0x20 ADD PUSH1 0x1 DUP3 ADD DUP1 SLOAD PUSH2 0x34F SWAP1 PUSH2 0x1CAF JUMP JUMPDEST DUP1 PUSH1 0x1F ADD PUSH1 0x20 DUP1 SWAP2 DIV MUL PUSH1 0x20 ADD PUSH1 0x40 MLOAD SWAP1 DUP2 ADD PUSH1 0x40 MSTORE DUP1 SWAP3 SWAP2 SWAP1 DUP2 DUP2 MSTORE PUSH1 0x20 ADD DUP3 DUP1 SLOAD PUSH2 0x37B SWAP1 PUSH2 0x1CAF JUMP JUMPDEST DUP1 ISZERO PUSH2 0x3C8 JUMPI DUP1 PUSH1 0x1F LT PUSH2 0x39D JUMPI PUSH2 0x100 DUP1 DUP4 SLOAD DIV MUL DUP4 MSTORE SWAP2 PUSH1 0x20 ADD SWAP2 PUSH2 0x3C8 JUMP JUMPDEST DUP3 ADD SWAP2 SWAP1 PUSH1 0x0 MSTORE PUSH1 0x20 PUSH1 0x0 KECCAK256 SWAP1 JUMPDEST DUP2 SLOAD DUP2 MSTORE SWAP1 PUSH1 0x1 ADD SWAP1 PUSH1 0x20 ADD DUP1 DUP4 GT PUSH2 0x3AB JUMPI DUP3 SWAP1 SUB PUSH1 0x1F AND DUP3 ADD SWAP2 JUMPDEST POP POP POP POP POP DUP2 MSTORE PUSH1 0x20 ADD PUSH1 0x2 DUP3 ADD DUP1 SLOAD PUSH2 0x3E1 SWAP1 PUSH2 0x1CAF JUMP JUMPDEST DUP1 PUSH1 0x1F ADD PUSH1 0x20 DUP1 SWAP2 DIV MUL PUSH1 0x20 ADD PUSH1 0x40 MLOAD SWAP1 DUP2 ADD PUSH1 0x40 MSTORE DUP1 SWAP3 SWAP2 SWAP1 DUP2 DUP2 MSTORE PUSH1 0x20 ADD DUP3 DUP1 SLOAD PUSH2 0x40D SWAP1 PUSH2 0x1CAF JUMP JUMPDEST DUP1 ISZERO PUSH2 0x45A JUMPI DUP1 PUSH1 0x1F LT PUSH2 0x42F JUMPI PUSH2 0x100 DUP1 DUP4 SLOAD DIV MUL DUP4 MSTORE SWAP2 PUSH1 0x20 ADD SWAP2 PUSH2 0x45A JUMP JUMPDEST DUP3 ADD SWAP2 SWAP1 PUSH1 0x0 MSTORE PUSH1 0x20 PUSH1 0x0 KECCAK256 SWAP1 JUMPDEST DUP2 SLOAD DUP2 MSTORE SWAP1 PUSH1 0x1 ADD SWAP1 PUSH1 0x20 ADD DUP1 DUP4 GT PUSH2 0x43D JUMPI DUP3 SWAP1 SUB PUSH1 0x1F AND DUP3 ADD SWAP2 JUMPDEST POP POP POP POP POP DUP2 MSTORE PUSH1 0x20 ADD PUSH1 0x3 DUP3 ADD DUP1 SLOAD PUSH2 0x473 SWAP1 PUSH2 0x1CAF JUMP JUMPDEST DUP1 PUSH1 0x1F ADD PUSH1 0x20 DUP1 SWAP2 DIV MUL PUSH1 0x20 ADD PUSH1 0x40 MLOAD SWAP1 DUP2 ADD PUSH1 0x40 MSTORE DUP1 SWAP3 SWAP2 SWAP1 DUP2 DUP2 MSTORE PUSH1 0x20 ADD DUP3 DUP1 SLOAD PUSH2 0x49F SWAP1 PUSH2 0x1CAF JUMP JUMPDEST DUP1 ISZERO PUSH2 0x4EC JUMPI DUP1 PUSH1 0x1F LT PUSH2 0x4C1 JUMPI PUSH2 0x100 DUP1 DUP4 SLOAD DIV MUL DUP4 MSTORE SWAP2 PUSH1 0x20 ADD SWAP2 PUSH2 0x4EC JUMP JUMPDEST DUP3 ADD SWAP2 SWAP1 PUSH1 0x0 MSTORE PUSH1 0x20 PUSH1 0x0 KECCAK256 SWAP1 JUMPDEST DUP2 SLOAD DUP2 MSTORE SWAP1 PUSH1 0x1 ADD SWAP1 PUSH1 0x20 ADD DUP1 DUP4 GT PUSH2 0x4CF JUMPI DUP3 SWAP1 SUB PUSH1 0x1F AND DUP3 ADD SWAP2 JUMPDEST POP POP POP POP POP DUP2 MSTORE PUSH1 0x20 ADD PUSH1 0x4 DUP3 ADD SLOAD DUP2 MSTORE POP POP DUP2 MSTORE PUSH1 0x20 ADD SWAP1 PUSH1 0x1 ADD SWAP1 PUSH2 0x312 JUMP JUMPDEST POP POP POP POP SWAP1 POP SWAP1 JUMP JUMPDEST PUSH1 0x2 PUSH1 0x20 MSTORE DUP1 PUSH1 0x0 MSTORE PUSH1 0x40 PUSH1 0x0 KECCAK256 PUSH1 0x0 SWAP2 POP SLOAD SWAP1 PUSH2 0x100 EXP SWAP1 DIV PUSH1 0xFF AND DUP2 JUMP JUMPDEST PUSH1 0x0 PUSH1 0x14 SWAP1 SLOAD SWAP1 PUSH2 0x100 EXP SWAP1 DIV PUSH1 0xFF AND DUP2 JUMP JUMPDEST PUSH2 0x552 PUSH2 0x125A JUMP JUMPDEST PUSH1 0x0 DUP1 PUSH1 0x2 DUP2 GT ISZERO PUSH2 0x567 JUMPI PUSH2 0x566 PUSH2 0x1693 JUMP JUMPDEST JUMPDEST PUSH1 0x0 PUSH1 0x14 SWAP1 SLOAD SWAP1 PUSH2 0x100 EXP SWAP1 DIV PUSH1 0xFF AND PUSH1 0x2 DUP2 GT ISZERO PUSH2 0x589 JUMPI PUSH2 0x588 PUSH2 0x1693 JUMP JUMPDEST JUMPDEST EQ PUSH2 0x5C9 JUMPI PUSH1 0x40 MLOAD PUSH32 0x8C379A000000000000000000000000000000000000000000000000000000000 DUP2 MSTORE PUSH1 0x4 ADD PUSH2 0x5C0 SWAP1 PUSH2 0x1D52 JUMP JUMPDEST PUSH1 0x40 MLOAD DUP1 SWAP2 SUB SWAP1 REVERT JUMPDEST PUSH1 0x1 PUSH1 0x0 PUSH1 0x14 PUSH2 0x100 EXP DUP2 SLOAD DUP2 PUSH1 0xFF MUL NOT AND SWAP1 DUP4 PUSH1 0x2 DUP2 GT ISZERO PUSH2 0x5EF JUMPI PUSH2 0x5EE PUSH2 0x1693 JUMP JUMPDEST JUMPDEST MUL OR SWAP1 SSTORE POP PUSH32 0x82AA0CC22CBB103BD5F28A40C65B9E63F2DF333BBB70C6C9128EB83D7CB1041D PUSH1 0x1 PUSH1 0x40 MLOAD PUSH2 0x624 SWAP2 SWAP1 PUSH2 0x170A JUMP JUMPDEST PUSH1 0x40 MLOAD DUP1 SWAP2 SUB SWAP1 LOG1 POP JUMP JUMPDEST PUSH1 0x3 DUP2 DUP2 SLOAD DUP2 LT PUSH2 0x63F JUMPI PUSH1 0x0 DUP1 REVERT JUMPDEST SWAP1 PUSH1 0x0 MSTORE PUSH1 0x20 PUSH1 0x0 KECCAK256 SWAP1 PUSH1 0x5 MUL ADD PUSH1 0x0 SWAP2 POP SWAP1 POP DUP1 PUSH1 0x0 ADD SLOAD SWAP1 DUP1 PUSH1 0x1 ADD DUP1 SLOAD PUSH2 0x668 SWAP1 PUSH2 0x1CAF JUMP JUMPDEST DUP1 PUSH1 0x1F ADD PUSH1 0x20 DUP1 SWAP2 DIV MUL PUSH1 0x20 ADD PUSH1 0x40 MLOAD SWAP1 DUP2 ADD PUSH1 0x40 MSTORE DUP1 SWAP3 SWAP2 SWAP1 DUP2 DUP2 MSTORE PUSH1 0x20 ADD DUP3 DUP1 SLOAD PUSH2 0x694 SWAP1 PUSH2 0x1CAF JUMP JUMPDEST DUP1 ISZERO PUSH2 0x6E1 JUMPI DUP1 PUSH1 0x1F LT PUSH2 0x6B6 JUMPI PUSH2 0x100 DUP1 DUP4 SLOAD DIV MUL DUP4 MSTORE SWAP2 PUSH1 0x20 ADD SWAP2 PUSH2 0x6E1 JUMP JUMPDEST DUP3 ADD SWAP2 SWAP1 PUSH1 0x0 MSTORE PUSH1 0x20 PUSH1 0x0 KECCAK256 SWAP1 JUMPDEST DUP2 SLOAD DUP2 MSTORE SWAP1 PUSH1 0x1 ADD SWAP1 PUSH1 0x20 ADD DUP1 DUP4 GT PUSH2 0x6C4 JUMPI DUP3 SWAP1 SUB PUSH1 0x1F AND DUP3 ADD SWAP2 JUMPDEST POP POP POP POP POP SWAP1 DUP1 PUSH1 0x2 ADD DUP1 SLOAD PUSH2 0x6F6 SWAP1 PUSH2 0x1CAF JUMP JUMPDEST DUP1 PUSH1 0x1F ADD PUSH1 0x20 DUP1 SWAP2 DIV MUL PUSH1 0x20 ADD PUSH1 0x40 MLOAD SWAP1 DUP2 ADD PUSH1 0x40 MSTORE DUP1 SWAP3 SWAP2 SWAP1 DUP2 DUP2 MSTORE PUSH1 0x20 ADD DUP3 DUP1 SLOAD PUSH2 0x722 SWAP1 PUSH2 0x1CAF JUMP JUMPDEST DUP1 ISZERO PUSH2 0x76F JUMPI DUP1 PUSH1 0x1F LT PUSH2 0x744 JUMPI PUSH2 0x100 DUP1 DUP4 SLOAD DIV MUL DUP4 MSTORE SWAP2 PUSH1 0x20 ADD SWAP2 PUSH2 0x76F JUMP JUMPDEST DUP3 ADD SWAP2 SWAP1 PUSH1 0x0 MSTORE PUSH1 0x20 PUSH1 0x0 KECCAK256 SWAP1 JUMPDEST DUP2 SLOAD DUP2 MSTORE SWAP1 PUSH1 0x1 ADD SWAP1 PUSH1 0x20 ADD DUP1 DUP4 GT PUSH2 0x752 JUMPI DUP3 SWAP1 SUB PUSH1 0x1F AND DUP3 ADD SWAP2 JUMPDEST POP POP POP POP POP SWAP1 DUP1 PUSH1 0x3 ADD DUP1 SLOAD PUSH2 0x784 SWAP1 PUSH2 0x1CAF JUMP JUMPDEST DUP1 PUSH1 0x1F ADD PUSH1 0x20 DUP1 SWAP2 DIV MUL PUSH1 0x20 ADD PUSH1 0x40 MLOAD SWAP1 DUP2 ADD PUSH1 0x40 MSTORE DUP1 SWAP3 SWAP2 SWAP1 DUP2 DUP2 MSTORE PUSH1 0x20 ADD DUP3 DUP1 SLOAD PUSH2 0x7B0 SWAP1 PUSH2 0x1CAF JUMP JUMPDEST DUP1 ISZERO PUSH2 0x7FD JUMPI DUP1 PUSH1 0x1F LT PUSH2 0x7D2 JUMPI PUSH2 0x100 DUP1 DUP4 SLOAD DIV MUL DUP4 MSTORE SWAP2 PUSH1 0x20 ADD SWAP2 PUSH2 0x7FD JUMP JUMPDEST DUP3 ADD SWAP2 SWAP1 PUSH1 0x0 MSTORE PUSH1 0x20 PUSH1 0x0 KECCAK256 SWAP1 JUMPDEST DUP2 SLOAD DUP2 MSTORE SWAP1 PUSH1 0x1 ADD SWAP1 PUSH1 0x20 ADD DUP1 DUP4 GT PUSH2 0x7E0 JUMPI DUP3 SWAP1 SUB PUSH1 0x1F AND DUP3 ADD SWAP2 JUMPDEST POP POP POP POP POP SWAP1 DUP1 PUSH1 0x4 ADD SLOAD SWAP1 POP DUP6 JUMP JUMPDEST PUSH1 0x1 DUP1 PUSH1 0x2 DUP2 GT ISZERO PUSH2 0x822 JUMPI PUSH2 0x821 PUSH2 0x1693 JUMP JUMPDEST JUMPDEST PUSH1 0x0 PUSH1 0x14 SWAP1 SLOAD SWAP1 PUSH2 0x100 EXP SWAP1 DIV PUSH1 0xFF AND PUSH1 0x2 DUP2 GT ISZERO PUSH2 0x844 JUMPI PUSH2 0x843 PUSH2 0x1693 JUMP JUMPDEST JUMPDEST EQ PUSH2 0x884 JUMPI PUSH1 0x40 MLOAD PUSH32 0x8C379A000000000000000000000000000000000000000000000000000000000 DUP2 MSTORE PUSH1 0x4 ADD PUSH2 0x87B SWAP1 PUSH2 0x1D52 JUMP JUMPDEST PUSH1 0x40 MLOAD DUP1 SWAP2 SUB SWAP1 REVERT JUMPDEST PUSH1 0x1 PUSH1 0x0 CALLER PUSH20 0xFFFFFFFFFFFFFFFFFFFFFFFFFFFFFFFFFFFFFFFF AND PUSH20 0xFFFFFFFFFFFFFFFFFFFFFFFFFFFFFFFFFFFFFFFF AND DUP2 MSTORE PUSH1 0x20 ADD SWAP1 DUP2 MSTORE PUSH1 0x20 ADD PUSH1 0x0 KECCAK256 PUSH1 0x0 SWAP1 SLOAD SWAP1 PUSH2 0x100 EXP SWAP1 DIV PUSH1 0xFF AND PUSH2 0x910 JUMPI PUSH1 0x40 MLOAD PUSH32 0x8C379A000000000000000000000000000000000000000000000000000000000 DUP2 MSTORE PUSH1 0x4 ADD PUSH2 0x907 SWAP1 PUSH2 0x1DBE JUMP JUMPDEST PUSH1 0x40 MLOAD DUP1 SWAP2 SUB SWAP1 REVERT JUMPDEST PUSH1 0x2 PUSH1 0x0 CALLER PUSH20 0xFFFFFFFFFFFFFFFFFFFFFFFFFFFFFFFFFFFFFFFF AND PUSH20 0xFFFFFFFFFFFFFFFFFFFFFFFFFFFFFFFFFFFFFFFF AND DUP2 MSTORE PUSH1 0x20 ADD SWAP1 DUP2 MSTORE PUSH1 0x20 ADD PUSH1 0x0 KECCAK256 PUSH1 0x0 SWAP1 SLOAD SWAP1 PUSH2 0x100 EXP SWAP1 DIV PUSH1 0xFF AND ISZERO PUSH2 0x99D JUMPI PUSH1 0x40 MLOAD PUSH32 0x8C379A000000000000000000000000000000000000000000000000000000000 DUP2 MSTORE PUSH1 0x4 ADD PUSH2 0x994 SWAP1 PUSH2 0x1E2A JUMP JUMPDEST PUSH1 0x40 MLOAD DUP1 SWAP2 SUB SWAP1 REVERT JUMPDEST PUSH1 0x3 DUP1 SLOAD SWAP1 POP DUP3 LT PUSH2 0x9E4 JUMPI PUSH1 0x40 MLOAD PUSH32 0x8C379A000000000000000000000000000000000000000000000000000000000 DUP2 MSTORE PUSH1 0x4 ADD PUSH2 0x9DB SWAP1 PUSH2 0x1E96 JUMP JUMPDEST PUSH1 0x40 MLOAD DUP1 SWAP2 SUB SWAP1 REVERT JUMPDEST PUSH1 0x1 PUSH1 0x2 PUSH1 0x0 CALLER PUSH20 0xFFFFFFFFFFFFFFFFFFFFFFFFFFFFFFFFFFFFFFFF AND PUSH20 0xFFFFFFFFFFFFFFFFFFFFFFFFFFFFFFFFFFFFFFFF AND DUP2 MSTORE PUSH1 0x20 ADD SWAP1 DUP2 MSTORE PUSH1 0x20 ADD PUSH1 0x0 KECCAK256 PUSH1 0x0 PUSH2 0x100 EXP DUP2 SLOAD DUP2 PUSH1 0xFF MUL NOT AND SWAP1 DUP4 ISZERO ISZERO MUL OR SWAP1 SSTORE POP PUSH1 0x1 PUSH1 0x3 DUP4 DUP2 SLOAD DUP2 LT PUSH2 0xA52 JUMPI PUSH2 0xA51 PUSH2 0x1EB6 JUMP JUMPDEST JUMPDEST SWAP1 PUSH1 0x0 MSTORE PUSH1 0x20 PUSH1 0x0 KECCAK256 SWAP1 PUSH1 0x5 MUL ADD PUSH1 0x4 ADD PUSH1 0x0 DUP3 DUP3 SLOAD PUSH2 0xA72 SWAP2 SWAP1 PUSH2 0x1F14 JUMP JUMPDEST SWAP3 POP POP DUP2 SWAP1 SSTORE POP PUSH1 0x1 PUSH1 0x5 PUSH1 0x0 DUP3 DUP3 SLOAD PUSH2 0xA8C SWAP2 SWAP1 PUSH2 0x1F14 JUMP JUMPDEST SWAP3 POP POP DUP2 SWAP1 SSTORE POP PUSH32 0xA36CC2BEBB74DB33E9F88110A07EF56E1B31B24B4C4F51B54B1664266E29F45B CALLER DUP4 PUSH1 0x40 MLOAD PUSH2 0xAC4 SWAP3 SWAP2 SWAP1 PUSH2 0x1F48 JUMP JUMPDEST PUSH1 0x40 MLOAD DUP1 SWAP2 SUB SWAP1 LOG1 POP POP JUMP JUMPDEST PUSH2 0xAD8 PUSH2 0x125A JUMP JUMPDEST PUSH2 0xAE2 PUSH1 0x0 PUSH2 0x12E1 JUMP JUMPDEST JUMP JUMPDEST PUSH1 0x60 PUSH1 0x4 DUP1 SLOAD DUP1 PUSH1 0x20 MUL PUSH1 0x20 ADD PUSH1 0x40 MLOAD SWAP1 DUP2 ADD PUSH1 0x40 MSTORE DUP1 SWAP3 SWAP2 SWAP1 DUP2 DUP2 MSTORE PUSH1 0x20 ADD PUSH1 0x0 SWAP1 JUMPDEST DUP3 DUP3 LT ISZERO PUSH2 0xC22 JUMPI DUP4 DUP3 SWAP1 PUSH1 0x0 MSTORE PUSH1 0x20 PUSH1 0x0 KECCAK256 SWAP1 PUSH1 0x2 MUL ADD PUSH1 0x40 MLOAD DUP1 PUSH1 0x40 ADD PUSH1 0x40 MSTORE SWAP1 DUP2 PUSH1 0x0 DUP3 ADD PUSH1 0x0 SWAP1 SLOAD SWAP1 PUSH2 0x100 EXP SWAP1 DIV PUSH20 0xFFFFFFFFFFFFFFFFFFFFFFFFFFFFFFFFFFFFFFFF AND PUSH20 0xFFFFFFFFFFFFFFFFFFFFFFFFFFFFFFFFFFFFFFFF AND PUSH20 0xFFFFFFFFFFFFFFFFFFFFFFFFFFFFFFFFFFFFFFFF AND DUP2 MSTORE PUSH1 0x20 ADD PUSH1 0x1 DUP3 ADD DUP1 SLOAD PUSH2 0xB91 SWAP1 PUSH2 0x1CAF JUMP JUMPDEST DUP1 PUSH1 0x1F ADD PUSH1 0x20 DUP1 SWAP2 DIV MUL PUSH1 0x20 ADD PUSH1 0x40 MLOAD SWAP1 DUP2 ADD PUSH1 0x40 MSTORE DUP1 SWAP3 SWAP2 SWAP1 DUP2 DUP2 MSTORE PUSH1 0x20 ADD DUP3 DUP1 SLOAD PUSH2 0xBBD SWAP1 PUSH2 0x1CAF JUMP JUMPDEST DUP1 ISZERO PUSH2 0xC0A JUMPI DUP1 PUSH1 0x1F LT PUSH2 0xBDF JUMPI PUSH2 0x100 DUP1 DUP4 SLOAD DIV MUL DUP4 MSTORE SWAP2 PUSH1 0x20 ADD SWAP2 PUSH2 0xC0A JUMP JUMPDEST DUP3 ADD SWAP2 SWAP1 PUSH1 0x0 MSTORE PUSH1 0x20 PUSH1 0x0 KECCAK256 SWAP1 JUMPDEST DUP2 SLOAD DUP2 MSTORE SWAP1 PUSH1 0x1 ADD SWAP1 PUSH1 0x20 ADD DUP1 DUP4 GT PUSH2 0xBED JUMPI DUP3 SWAP1 SUB PUSH1 0x1F AND DUP3 ADD SWAP2 JUMPDEST POP POP POP POP POP DUP2 MSTORE POP POP DUP2 MSTORE PUSH1 0x20 ADD SWAP1 PUSH1 0x1 ADD SWAP1 PUSH2 0xB08 JUMP JUMPDEST POP POP POP POP SWAP1 POP SWAP1 JUMP JUMPDEST PUSH1 0x5 SLOAD DUP2 JUMP JUMPDEST PUSH1 0x0 DUP1 PUSH1 0x0 SWAP1 SLOAD SWAP1 PUSH2 0x100 EXP SWAP1 DIV PUSH20 0xFFFFFFFFFFFFFFFFFFFFFFFFFFFFFFFFFFFFFFFF AND SWAP1 POP SWAP1 JUMP JUMPDEST PUSH2 0xC62 PUSH2 0x125A JUMP JUMPDEST PUSH1 0x1 PUSH1 0x0 DUP5 PUSH20 0xFFFFFFFFFFFFFFFFFFFFFFFFFFFFFFFFFFFFFFFF AND PUSH20 0xFFFFFFFFFFFFFFFFFFFFFFFFFFFFFFFFFFFFFFFF AND DUP2 MSTORE PUSH1 0x20 ADD SWAP1 DUP2 MSTORE PUSH1 0x20 ADD PUSH1 0x0 KECCAK256 PUSH1 0x0 SWAP1 SLOAD SWAP1 PUSH2 0x100 EXP SWAP1 DIV PUSH1 0xFF AND ISZERO PUSH2 0xCEF JUMPI PUSH1 0x40 MLOAD PUSH32 0x8C379A000000000000000000000000000000000000000000000000000000000 DUP2 MSTORE PUSH1 0x4 ADD PUSH2 0xCE6 SWAP1 PUSH2 0x1FBD JUMP JUMPDEST PUSH1 0x40 MLOAD DUP1 SWAP2 SUB SWAP1 REVERT JUMPDEST PUSH1 0x1 DUP1 PUSH1 0x0 DUP6 PUSH20 0xFFFFFFFFFFFFFFFFFFFFFFFFFFFFFFFFFFFFFFFF AND PUSH20 0xFFFFFFFFFFFFFFFFFFFFFFFFFFFFFFFFFFFFFFFF AND DUP2 MSTORE PUSH1 0x20 ADD SWAP1 DUP2 MSTORE PUSH1 0x20 ADD PUSH1 0x0 KECCAK256 PUSH1 0x0 PUSH2 0x100 EXP DUP2 SLOAD DUP2 PUSH1 0xFF MUL NOT AND SWAP1 DUP4 ISZERO ISZERO MUL OR SWAP1 SSTORE POP PUSH1 0x4 PUSH1 0x40 MLOAD DUP1 PUSH1 0x40 ADD PUSH1 0x40 MSTORE DUP1 DUP6 PUSH20 0xFFFFFFFFFFFFFFFFFFFFFFFFFFFFFFFFFFFFFFFF AND DUP2 MSTORE PUSH1 0x20 ADD DUP5 DUP5 DUP1 DUP1 PUSH1 0x1F ADD PUSH1 0x20 DUP1 SWAP2 DIV MUL PUSH1 0x20 ADD PUSH1 0x40 MLOAD SWAP1 DUP2 ADD PUSH1 0x40 MSTORE DUP1 SWAP4 SWAP3 SWAP2 SWAP1 DUP2 DUP2 MSTORE PUSH1 0x20 ADD DUP4 DUP4 DUP1 DUP3 DUP5 CALLDATACOPY PUSH1 0x0 DUP2 DUP5 ADD MSTORE PUSH1 0x1F NOT PUSH1 0x1F DUP3 ADD AND SWAP1 POP DUP1 DUP4 ADD SWAP3 POP POP POP POP POP POP POP DUP2 MSTORE POP SWAP1 DUP1 PUSH1 0x1 DUP2 SLOAD ADD DUP1 DUP3 SSTORE DUP1 SWAP2 POP POP PUSH1 0x1 SWAP1 SUB SWAP1 PUSH1 0x0 MSTORE PUSH1 0x20 PUSH1 0x0 KECCAK256 SWAP1 PUSH1 0x2 MUL ADD PUSH1 0x0 SWAP1 SWAP2 SWAP1 SWAP2 SWAP1 SWAP2 POP PUSH1 0x0 DUP3 ADD MLOAD DUP2 PUSH1 0x0 ADD PUSH1 0x0 PUSH2 0x100 EXP DUP2 SLOAD DUP2 PUSH20 0xFFFFFFFFFFFFFFFFFFFFFFFFFFFFFFFFFFFFFFFF MUL NOT AND SWAP1 DUP4 PUSH20 0xFFFFFFFFFFFFFFFFFFFFFFFFFFFFFFFFFFFFFFFF AND MUL OR SWAP1 SSTORE POP PUSH1 0x20 DUP3 ADD MLOAD DUP2 PUSH1 0x1 ADD SWAP1 DUP2 PUSH2 0xE3C SWAP2 SWAP1 PUSH2 0x2189 JUMP JUMPDEST POP POP POP PUSH32 0x2D58685EC3349D0400EA2990A81E813F67C21D1A878BA6C09CA0893DF4F6CBB DUP4 DUP4 DUP4 PUSH1 0x40 MLOAD PUSH2 0xE72 SWAP4 SWAP3 SWAP2 SWAP1 PUSH2 0x2288 JUMP JUMPDEST PUSH1 0x40 MLOAD DUP1 SWAP2 SUB SWAP1 LOG1 POP POP POP JUMP JUMPDEST PUSH2 0xE87 PUSH2 0x125A JUMP JUMPDEST PUSH1 0x0 DUP1 PUSH1 0x2 DUP2 GT ISZERO PUSH2 0xE9C JUMPI PUSH2 0xE9B PUSH2 0x1693 JUMP JUMPDEST JUMPDEST PUSH1 0x0 PUSH1 0x14 SWAP1 SLOAD SWAP1 PUSH2 0x100 EXP SWAP1 DIV PUSH1 0xFF AND PUSH1 0x2 DUP2 GT ISZERO PUSH2 0xEBE JUMPI PUSH2 0xEBD PUSH2 0x1693 JUMP JUMPDEST JUMPDEST EQ PUSH2 0xEFE JUMPI PUSH1 0x40 MLOAD PUSH32 0x8C379A000000000000000000000000000000000000000000000000000000000 DUP2 MSTORE PUSH1 0x4 ADD PUSH2 0xEF5 SWAP1 PUSH2 0x1D52 JUMP JUMPDEST PUSH1 0x40 MLOAD DUP1 SWAP2 SUB SWAP1 REVERT JUMPDEST PUSH1 0x0 PUSH1 0x3 DUP1 SLOAD SWAP1 POP SWAP1 POP PUSH1 0x3 PUSH1 0x40 MLOAD DUP1 PUSH1 0xA0 ADD PUSH1 0x40 MSTORE DUP1 DUP4 DUP2 MSTORE PUSH1 0x20 ADD DUP8 DUP2 MSTORE PUSH1 0x20 ADD DUP7 DUP2 MSTORE PUSH1 0x20 ADD DUP6 DUP2 MSTORE PUSH1 0x20 ADD PUSH1 0x0 DUP2 MSTORE POP SWAP1 DUP1 PUSH1 0x1 DUP2 SLOAD ADD DUP1 DUP3 SSTORE DUP1 SWAP2 POP POP PUSH1 0x1 SWAP1 SUB SWAP1 PUSH1 0x0 MSTORE PUSH1 0x20 PUSH1 0x0 KECCAK256 SWAP1 PUSH1 0x5 MUL ADD PUSH1 0x0 SWAP1 SWAP2 SWAP1 SWAP2 SWAP1 SWAP2 POP PUSH1 0x0 DUP3 ADD MLOAD DUP2 PUSH1 0x0 ADD SSTORE PUSH1 0x20 DUP3 ADD MLOAD DUP2 PUSH1 0x1 ADD SWAP1 DUP2 PUSH2 0xF7A SWAP2 SWAP1 PUSH2 0x2189 JUMP JUMPDEST POP PUSH1 0x40 DUP3 ADD MLOAD DUP2 PUSH1 0x2 ADD SWAP1 DUP2 PUSH2 0xF90 SWAP2 SWAP1 PUSH2 0x2189 JUMP JUMPDEST POP PUSH1 0x60 DUP3 ADD MLOAD DUP2 PUSH1 0x3 ADD SWAP1 DUP2 PUSH2 0xFA6 SWAP2 SWAP1 PUSH2 0x2189 JUMP JUMPDEST POP PUSH1 0x80 DUP3 ADD MLOAD DUP2 PUSH1 0x4 ADD SSTORE POP POP PUSH32 0xE83B2A43E7E82D975C8A0A6D2F045153C869E111136A34D1889AB7B598E396A3 DUP2 DUP7 PUSH1 0x40 MLOAD PUSH2 0xFE4 SWAP3 SWAP2 SWAP1 PUSH2 0x22BA JUMP JUMPDEST PUSH1 0x40 MLOAD DUP1 SWAP2 SUB SWAP1 LOG1 POP POP POP POP POP JUMP JUMPDEST PUSH2 0xFFB PUSH2 0x125A JUMP JUMPDEST PUSH1 0x1 DUP1 PUSH1 0x2 DUP2 GT ISZERO PUSH2 0x1010 JUMPI PUSH2 0x100F PUSH2 0x1693 JUMP JUMPDEST JUMPDEST PUSH1 0x0 PUSH1 0x14 SWAP1 SLOAD SWAP1 PUSH2 0x100 EXP SWAP1 DIV PUSH1 0xFF AND PUSH1 0x2 DUP2 GT ISZERO PUSH2 0x1032 JUMPI PUSH2 0x1031 PUSH2 0x1693 JUMP JUMPDEST JUMPDEST EQ PUSH2 0x1072 JUMPI PUSH1 0x40 MLOAD PUSH32 0x8C379A000000000000000000000000000000000000000000000000000000000 DUP2 MSTORE PUSH1 0x4 ADD PUSH2 0x1069 SWAP1 PUSH2 0x1D52 JUMP JUMPDEST PUSH1 0x40 MLOAD DUP1 SWAP2 SUB SWAP1 REVERT JUMPDEST PUSH1 0x2 PUSH1 0x0 PUSH1 0x14 PUSH2 0x100 EXP DUP2 SLOAD DUP2 PUSH1 0xFF MUL NOT AND SWAP1 DUP4 PUSH1 0x2 DUP2 GT ISZERO PUSH2 0x1098 JUMPI PUSH2 0x1097 PUSH2 0x1693 JUMP JUMPDEST JUMPDEST MUL OR SWAP1 SSTORE POP PUSH32 0x82AA0CC22CBB103BD5F28A40C65B9E63F2DF333BBB70C6C9128EB83D7CB1041D PUSH1 0x2 PUSH1 0x40 MLOAD PUSH2 0x10CD SWAP2 SWAP1 PUSH2 0x170A JUMP JUMPDEST PUSH1 0x40 MLOAD DUP1 SWAP2 SUB SWAP1 LOG1 POP JUMP JUMPDEST PUSH1 0x4 DUP2 DUP2 SLOAD DUP2 LT PUSH2 0x10E8 JUMPI PUSH1 0x0 DUP1 REVERT JUMPDEST SWAP1 PUSH1 0x0 MSTORE PUSH1 0x20 PUSH1 0x0 KECCAK256 SWAP1 PUSH1 0x2 MUL ADD PUSH1 0x0 SWAP2 POP SWAP1 POP DUP1 PUSH1 0x0 ADD PUSH1 0x0 SWAP1 SLOAD SWAP1 PUSH2 0x100 EXP SWAP1 DIV PUSH20 0xFFFFFFFFFFFFFFFFFFFFFFFFFFFFFFFFFFFFFFFF AND SWAP1 DUP1 PUSH1 0x1 ADD DUP1 SLOAD PUSH2 0x1131 SWAP1 PUSH2 0x1CAF JUMP JUMPDEST DUP1 PUSH1 0x1F ADD PUSH1 0x20 DUP1 SWAP2 DIV MUL PUSH1 0x20 ADD PUSH1 0x40 MLOAD SWAP1 DUP2 ADD PUSH1 0x40 MSTORE DUP1 SWAP3 SWAP2 SWAP1 DUP2 DUP2 MSTORE PUSH1 0x20 ADD DUP3 DUP1 SLOAD PUSH2 0x115D SWAP1 PUSH2 0x1CAF JUMP JUMPDEST DUP1 ISZERO PUSH2 0x11AA JUMPI DUP1 PUSH1 0x1F LT PUSH2 0x117F JUMPI PUSH2 0x100 DUP1 DUP4 SLOAD DIV MUL DUP4 MSTORE SWAP2 PUSH1 0x20 ADD SWAP2 PUSH2 0x11AA JUMP JUMPDEST DUP3 ADD SWAP2 SWAP1 PUSH1 0x0 MSTORE PUSH1 0x20 PUSH1 0x0 KECCAK256 SWAP1 JUMPDEST DUP2 SLOAD DUP2 MSTORE SWAP1 PUSH1 0x1 ADD SWAP1 PUSH1 0x20 ADD DUP1 DUP4 GT PUSH2 0x118D JUMPI DUP3 SWAP1 SUB PUSH1 0x1F AND DUP3 ADD SWAP2 JUMPDEST POP POP POP POP POP SWAP1 POP DUP3 JUMP JUMPDEST PUSH1 0x1 PUSH1 0x20 MSTORE DUP1 PUSH1 0x0 MSTORE PUSH1 0x40 PUSH1 0x0 KECCAK256 PUSH1 0x0 SWAP2 POP SLOAD SWAP1 PUSH2 0x100 EXP SWAP1 DIV PUSH1 0xFF AND DUP2 JUMP JUMPDEST PUSH2 0x11DC PUSH2 0x125A JUMP JUMPDEST PUSH1 0x0 PUSH20 0xFFFFFFFFFFFFFFFFFFFFFFFFFFFFFFFFFFFFFFFF AND DUP2 PUSH20 0xFFFFFFFFFFFFFFFFFFFFFFFFFFFFFFFFFFFFFFFF AND SUB PUSH2 0x124E JUMPI PUSH1 0x0 PUSH1 0x40 MLOAD PUSH32 0x1E4FBDF700000000000000000000000000000000000000000000000000000000 DUP2 MSTORE PUSH1 0x4 ADD PUSH2 0x1245 SWAP2 SWAP1 PUSH2 0x1999 JUMP JUMPDEST PUSH1 0x40 MLOAD DUP1 SWAP2 SUB SWAP1 REVERT JUMPDEST PUSH2 0x1257 DUP2 PUSH2 0x12E1 JUMP JUMPDEST POP JUMP JUMPDEST PUSH2 0x1262 PUSH2 0x13A5 JUMP JUMPDEST PUSH20 0xFFFFFFFFFFFFFFFFFFFFFFFFFFFFFFFFFFFFFFFF AND PUSH2 0x1280 PUSH2 0xC31 JUMP JUMPDEST PUSH20 0xFFFFFFFFFFFFFFFFFFFFFFFFFFFFFFFFFFFFFFFF AND EQ PUSH2 0x12DF JUMPI PUSH2 0x12A3 PUSH2 0x13A5 JUMP JUMPDEST PUSH1 0x40 MLOAD PUSH32 0x118CDAA700000000000000000000000000000000000000000000000000000000 DUP2 MSTORE PUSH1 0x4 ADD PUSH2 0x12D6 SWAP2 SWAP1 PUSH2 0x1999 JUMP JUMPDEST PUSH1 0x40 MLOAD DUP1 SWAP2 SUB SWAP1 REVERT JUMPDEST JUMP JUMPDEST PUSH1 0x0 DUP1 PUSH1 0x0 SWAP1 SLOAD SWAP1 PUSH2 0x100 EXP SWAP1 DIV PUSH20 0xFFFFFFFFFFFFFFFFFFFFFFFFFFFFFFFFFFFFFFFF AND SWAP1 POP DUP2 PUSH1 0x0 DUP1 PUSH2 0x100 EXP DUP2 SLOAD DUP2 PUSH20 0xFFFFFFFFFFFFFFFFFFFFFFFFFFFFFFFFFFFFFFFF MUL NOT AND SWAP1 DUP4 PUSH20 0xFFFFFFFFFFFFFFFFFFFFFFFFFFFFFFFFFFFFFFFF AND MUL OR SWAP1 SSTORE POP DUP2 PUSH20 0xFFFFFFFFFFFFFFFFFFFFFFFFFFFFFFFFFFFFFFFF AND DUP2 PUSH20 0xFFFFFFFFFFFFFFFFFFFFFFFFFFFFFFFFFFFFFFFF AND PUSH32 0x8BE0079C531659141344CD1FD0A4F28419497F9722A3DAAFE3B4186F6B6457E0 PUSH1 0x40 MLOAD PUSH1 0x40 MLOAD DUP1 SWAP2 SUB SWAP1 LOG3 POP POP JUMP JUMPDEST PUSH1 0x0 CALLER SWAP1 POP SWAP1 JUMP JUMPDEST PUSH1 0x0 DUP2 MLOAD SWAP1 POP SWAP2 SWAP1 POP JUMP JUMPDEST PUSH1 0x0 DUP3 DUP3 MSTORE PUSH1 0x20 DUP3 ADD SWAP1 POP SWAP3 SWAP2 POP POP JUMP JUMPDEST PUSH1 0x0 DUP2 SWAP1 POP PUSH1 0x20 DUP3 ADD SWAP1 POP SWAP2 SWAP1 POP JUMP JUMPDEST PUSH1 0x0 DUP2 SWAP1 POP SWAP2 SWAP1 POP JUMP JUMPDEST PUSH2 0x13EC DUP2 PUSH2 0x13D9 JUMP JUMPDEST DUP3 MSTORE POP POP JUMP JUMPDEST PUSH1 0x0 DUP2 MLOAD SWAP1 POP SWAP2 SWAP1 POP JUMP JUMPDEST PUSH1 0x0 DUP3 DUP3 MSTORE PUSH1 0x20 DUP3 ADD SWAP1 POP SWAP3 SWAP2 POP POP JUMP JUMPDEST PUSH1 0x0 JUMPDEST DUP4 DUP2 LT ISZERO PUSH2 0x142C JUMPI DUP1 DUP3 ADD MLOAD DUP2 DUP5 ADD MSTORE PUSH1 0x20 DUP2 ADD SWAP1 POP PUSH2 0x1411 JUMP JUMPDEST PUSH1 0x0 DUP5 DUP5 ADD MSTORE POP POP POP POP JUMP JUMPDEST PUSH1 0x0 PUSH1 0x1F NOT PUSH1 0x1F DUP4 ADD AND SWAP1 POP SWAP2 SWAP1 POP JUMP JUMPDEST PUSH1 0x0 PUSH2 0x1454 DUP3 PUSH2 0x13F2 JUMP JUMPDEST PUSH2 0x145E DUP2 DUP6 PUSH2 0x13FD JUMP JUMPDEST SWAP4 POP PUSH2 0x146E DUP2 DUP6 PUSH1 0x20 DUP7 ADD PUSH2 0x140E JUMP JUMPDEST PUSH2 0x1477 DUP2 PUSH2 0x1438 JUMP JUMPDEST DUP5 ADD SWAP2 POP POP SWAP3 SWAP2 POP POP JUMP JUMPDEST PUSH1 0x0 PUSH1 0xA0 DUP4 ADD PUSH1 0x0 DUP4 ADD MLOAD PUSH2 0x149A PUSH1 0x0 DUP7 ADD DUP3 PUSH2 0x13E3 JUMP JUMPDEST POP PUSH1 0x20 DUP4 ADD MLOAD DUP5 DUP3 SUB PUSH1 0x20 DUP7 ADD MSTORE PUSH2 0x14B2 DUP3 DUP3 PUSH2 0x1449 JUMP JUMPDEST SWAP2 POP POP PUSH1 0x40 DUP4 ADD MLOAD DUP5 DUP3 SUB PUSH1 0x40 DUP7 ADD MSTORE PUSH2 0x14CC DUP3 DUP3 PUSH2 0x1449 JUMP JUMPDEST SWAP2 POP POP PUSH1 0x60 DUP4 ADD MLOAD DUP5 DUP3 SUB PUSH1 0x60 DUP7 ADD MSTORE PUSH2 0x14E6 DUP3 DUP3 PUSH2 0x1449 JUMP JUMPDEST SWAP2 POP POP PUSH1 0x80 DUP4 ADD MLOAD PUSH2 0x14FB PUSH1 0x80 DUP7 ADD DUP3 PUSH2 0x13E3 JUMP JUMPDEST POP DUP1 SWAP2 POP POP SWAP3 SWAP2 POP POP JUMP JUMPDEST PUSH1 0x0 PUSH2 0x1512 DUP4 DUP4 PUSH2 0x1482 JUMP JUMPDEST SWAP1 POP SWAP3 SWAP2 POP POP JUMP JUMPDEST PUSH1 0x0 PUSH1 0x20 DUP3 ADD SWAP1 POP SWAP2 SWAP1 POP JUMP JUMPDEST PUSH1 0x0 PUSH2 0x1532 DUP3 PUSH2 0x13AD JUMP JUMPDEST PUSH2 0x153C DUP2 DUP6 PUSH2 0x13B8 JUMP JUMPDEST SWAP4 POP DUP4 PUSH1 0x20 DUP3 MUL DUP6 ADD PUSH2 0x154E DUP6 PUSH2 0x13C9 JUMP JUMPDEST DUP1 PUSH1 0x0 JUMPDEST DUP6 DUP2 LT ISZERO PUSH2 0x158A JUMPI DUP5 DUP5 SUB DUP10 MSTORE DUP2 MLOAD PUSH2 0x156B DUP6 DUP3 PUSH2 0x1506 JUMP JUMPDEST SWAP5 POP PUSH2 0x1576 DUP4 PUSH2 0x151A JUMP JUMPDEST SWAP3 POP PUSH1 0x20 DUP11 ADD SWAP10 POP POP PUSH1 0x1 DUP2 ADD SWAP1 POP PUSH2 0x1552 JUMP JUMPDEST POP DUP3 SWAP8 POP DUP8 SWAP6 POP POP POP POP POP POP SWAP3 SWAP2 POP POP JUMP JUMPDEST PUSH1 0x0 PUSH1 0x20 DUP3 ADD SWAP1 POP DUP2 DUP2 SUB PUSH1 0x0 DUP4 ADD MSTORE PUSH2 0x15B6 DUP2 DUP5 PUSH2 0x1527 JUMP JUMPDEST SWAP1 POP SWAP3 SWAP2 POP POP JUMP JUMPDEST PUSH1 0x0 PUSH1 0x40 MLOAD SWAP1 POP SWAP1 JUMP JUMPDEST PUSH1 0x0 DUP1 REVERT JUMPDEST PUSH1 0x0 DUP1 REVERT JUMPDEST PUSH1 0x0 PUSH20 0xFFFFFFFFFFFFFFFFFFFFFFFFFFFFFFFFFFFFFFFF DUP3 AND SWAP1 POP SWAP2 SWAP1 POP JUMP JUMPDEST PUSH1 0x0 PUSH2 0x15FD DUP3 PUSH2 0x15D2 JUMP JUMPDEST SWAP1 POP SWAP2 SWAP1 POP JUMP JUMPDEST PUSH2 0x160D DUP2 PUSH2 0x15F2 JUMP JUMPDEST DUP2 EQ PUSH2 0x1618 JUMPI PUSH1 0x0 DUP1 REVERT JUMPDEST POP JUMP JUMPDEST PUSH1 0x0 DUP2 CALLDATALOAD SWAP1 POP PUSH2 0x162A DUP2 PUSH2 0x1604 JUMP JUMPDEST SWAP3 SWAP2 POP POP JUMP JUMPDEST PUSH1 0x0 PUSH1 0x20 DUP3 DUP5 SUB SLT ISZERO PUSH2 0x1646 JUMPI PUSH2 0x1645 PUSH2 0x15C8 JUMP JUMPDEST JUMPDEST PUSH1 0x0 PUSH2 0x1654 DUP5 DUP3 DUP6 ADD PUSH2 0x161B JUMP JUMPDEST SWAP2 POP POP SWAP3 SWAP2 POP POP JUMP JUMPDEST PUSH1 0x0 DUP2 ISZERO ISZERO SWAP1 POP SWAP2 SWAP1 POP JUMP JUMPDEST PUSH2 0x1672 DUP2 PUSH2 0x165D JUMP JUMPDEST DUP3 MSTORE POP POP JUMP JUMPDEST PUSH1 0x0 PUSH1 0x20 DUP3 ADD SWAP1 POP PUSH2 0x168D PUSH1 0x0 DUP4 ADD DUP5 PUSH2 0x1669 JUMP JUMPDEST SWAP3 SWAP2 POP POP JUMP JUMPDEST PUSH32 0x4E487B7100000000000000000000000000000000000000000000000000000000 PUSH1 0x0 MSTORE PUSH1 0x21 PUSH1 0x4 MSTORE PUSH1 0x24 PUSH1 0x0 REVERT JUMPDEST PUSH1 0x3 DUP2 LT PUSH2 0x16D3 JUMPI PUSH2 0x16D2 PUSH2 0x1693 JUMP JUMPDEST JUMPDEST POP JUMP JUMPDEST PUSH1 0x0 DUP2 SWAP1 POP PUSH2 0x16E4 DUP3 PUSH2 0x16C2 JUMP JUMPDEST SWAP2 SWAP1 POP JUMP JUMPDEST PUSH1 0x0 PUSH2 0x16F4 DUP3 PUSH2 0x16D6 JUMP JUMPDEST SWAP1 POP SWAP2 SWAP1 POP JUMP JUMPDEST PUSH2 0x1704 DUP2 PUSH2 0x16E9 JUMP JUMPDEST DUP3 MSTORE POP POP JUMP JUMPDEST PUSH1 0x0 PUSH1 0x20 DUP3 ADD SWAP1 POP PUSH2 0x171F PUSH1 0x0 DUP4 ADD DUP5 PUSH2 0x16FB JUMP JUMPDEST SWAP3 SWAP2 POP POP JUMP JUMPDEST PUSH2 0x172E DUP2 PUSH2 0x13D9 JUMP JUMPDEST DUP2 EQ PUSH2 0x1739 JUMPI PUSH1 0x0 DUP1 REVERT JUMPDEST POP JUMP JUMPDEST PUSH1 0x0 DUP2 CALLDATALOAD SWAP1 POP PUSH2 0x174B DUP2 PUSH2 0x1725 JUMP JUMPDEST SWAP3 SWAP2 POP POP JUMP JUMPDEST PUSH1 0x0 PUSH1 0x20 DUP3 DUP5 SUB SLT ISZERO PUSH2 0x1767 JUMPI PUSH2 0x1766 PUSH2 0x15C8 JUMP JUMPDEST JUMPDEST PUSH1 0x0 PUSH2 0x1775 DUP5 DUP3 DUP6 ADD PUSH2 0x173C JUMP JUMPDEST SWAP2 POP POP SWAP3 SWAP2 POP POP JUMP JUMPDEST PUSH2 0x1787 DUP2 PUSH2 0x13D9 JUMP JUMPDEST DUP3 MSTORE POP POP JUMP JUMPDEST PUSH1 0x0 DUP3 DUP3 MSTORE PUSH1 0x20 DUP3 ADD SWAP1 POP SWAP3 SWAP2 POP POP JUMP JUMPDEST PUSH1 0x0 PUSH2 0x17A9 DUP3 PUSH2 0x13F2 JUMP JUMPDEST PUSH2 0x17B3 DUP2 DUP6 PUSH2 0x178D JUMP JUMPDEST SWAP4 POP PUSH2 0x17C3 DUP2 DUP6 PUSH1 0x20 DUP7 ADD PUSH2 0x140E JUMP JUMPDEST PUSH2 0x17CC DUP2 PUSH2 0x1438 JUMP JUMPDEST DUP5 ADD SWAP2 POP POP SWAP3 SWAP2 POP POP JUMP JUMPDEST PUSH1 0x0 PUSH1 0xA0 DUP3 ADD SWAP1 POP PUSH2 0x17EC PUSH1 0x0 DUP4 ADD DUP9 PUSH2 0x177E JUMP JUMPDEST DUP2 DUP2 SUB PUSH1 0x20 DUP4 ADD MSTORE PUSH2 0x17FE DUP2 DUP8 PUSH2 0x179E JUMP JUMPDEST SWAP1 POP DUP2 DUP2 SUB PUSH1 0x40 DUP4 ADD MSTORE PUSH2 0x1812 DUP2 DUP7 PUSH2 0x179E JUMP JUMPDEST SWAP1 POP DUP2 DUP2 SUB PUSH1 0x60 DUP4 ADD MSTORE PUSH2 0x1826 DUP2 DUP6 PUSH2 0x179E JUMP JUMPDEST SWAP1 POP PUSH2 0x1835 PUSH1 0x80 DUP4 ADD DUP5 PUSH2 0x177E JUMP JUMPDEST SWAP7 SWAP6 POP POP POP POP POP POP JUMP JUMPDEST PUSH1 0x0 DUP2 MLOAD SWAP1 POP SWAP2 SWAP1 POP JUMP JUMPDEST PUSH1 0x0 DUP3 DUP3 MSTORE PUSH1 0x20 DUP3 ADD SWAP1 POP SWAP3 SWAP2 POP POP JUMP JUMPDEST PUSH1 0x0 DUP2 SWAP1 POP PUSH1 0x20 DUP3 ADD SWAP1 POP SWAP2 SWAP1 POP JUMP JUMPDEST PUSH2 0x1874 DUP2 PUSH2 0x15F2 JUMP JUMPDEST DUP3 MSTORE POP POP JUMP JUMPDEST PUSH1 0x0 PUSH1 0x40 DUP4 ADD PUSH1 0x0 DUP4 ADD MLOAD PUSH2 0x1892 PUSH1 0x0 DUP7 ADD DUP3 PUSH2 0x186B JUMP JUMPDEST POP PUSH1 0x20 DUP4 ADD MLOAD DUP5 DUP3 SUB PUSH1 0x20 DUP7 ADD MSTORE PUSH2 0x18AA DUP3 DUP3 PUSH2 0x1449 JUMP JUMPDEST SWAP2 POP POP DUP1 SWAP2 POP POP SWAP3 SWAP2 POP POP JUMP JUMPDEST PUSH1 0x0 PUSH2 0x18C3 DUP4 DUP4 PUSH2 0x187A JUMP JUMPDEST SWAP1 POP SWAP3 SWAP2 POP POP JUMP JUMPDEST PUSH1 0x0 PUSH1 0x20 DUP3 ADD SWAP1 POP SWAP2 SWAP1 POP JUMP JUMPDEST PUSH1 0x0 PUSH2 0x18E3 DUP3 PUSH2 0x183F JUMP JUMPDEST PUSH2 0x18ED DUP2 DUP6 PUSH2 0x184A JUMP JUMPDEST SWAP4 POP DUP4 PUSH1 0x20 DUP3 MUL DUP6 ADD PUSH2 0x18FF DUP6 PUSH2 0x185B JUMP JUMPDEST DUP1 PUSH1 0x0 JUMPDEST DUP6 DUP2 LT ISZERO PUSH2 0x193B JUMPI DUP5 DUP5 SUB DUP10 MSTORE DUP2 MLOAD PUSH2 0x191C DUP6 DUP3 PUSH2 0x18B7 JUMP JUMPDEST SWAP5 POP PUSH2 0x1927 DUP4 PUSH2 0x18CB JUMP JUMPDEST SWAP3 POP PUSH1 0x20 DUP11 ADD SWAP10 POP POP PUSH1 0x1 DUP2 ADD SWAP1 POP PUSH2 0x1903 JUMP JUMPDEST POP DUP3 SWAP8 POP DUP8 SWAP6 POP POP POP POP POP POP SWAP3 SWAP2 POP POP JUMP JUMPDEST PUSH1 0x0 PUSH1 0x20 DUP3 ADD SWAP1 POP DUP2 DUP2 SUB PUSH1 0x0 DUP4 ADD MSTORE PUSH2 0x1967 DUP2 DUP5 PUSH2 0x18D8 JUMP JUMPDEST SWAP1 POP SWAP3 SWAP2 POP POP JUMP JUMPDEST PUSH1 0x0 PUSH1 0x20 DUP3 ADD SWAP1 POP PUSH2 0x1984 PUSH1 0x0 DUP4 ADD DUP5 PUSH2 0x177E JUMP JUMPDEST SWAP3 SWAP2 POP POP JUMP JUMPDEST PUSH2 0x1993 DUP2 PUSH2 0x15F2 JUMP JUMPDEST DUP3 MSTORE POP POP JUMP JUMPDEST PUSH1 0x0 PUSH1 0x20 DUP3 ADD SWAP1 POP PUSH2 0x19AE PUSH1 0x0 DUP4 ADD DUP5 PUSH2 0x198A JUMP JUMPDEST SWAP3 SWAP2 POP POP JUMP JUMPDEST PUSH1 0x0 DUP1 REVERT JUMPDEST PUSH1 0x0 DUP1 REVERT JUMPDEST PUSH1 0x0 DUP1 REVERT JUMPDEST PUSH1 0x0 DUP1 DUP4 PUSH1 0x1F DUP5 ADD SLT PUSH2 0x19D9 JUMPI PUSH2 0x19D8 PUSH2 0x19B4 JUMP JUMPDEST JUMPDEST DUP3 CALLDATALOAD SWAP1 POP PUSH8 0xFFFFFFFFFFFFFFFF DUP2 GT ISZERO PUSH2 0x19F6 JUMPI PUSH2 0x19F5 PUSH2 0x19B9 JUMP JUMPDEST JUMPDEST PUSH1 0x20 DUP4 ADD SWAP2 POP DUP4 PUSH1 0x1 DUP3 MUL DUP4 ADD GT ISZERO PUSH2 0x1A12 JUMPI PUSH2 0x1A11 PUSH2 0x19BE JUMP JUMPDEST JUMPDEST SWAP3 POP SWAP3 SWAP1 POP JUMP JUMPDEST PUSH1 0x0 DUP1 PUSH1 0x0 PUSH1 0x40 DUP5 DUP7 SUB SLT ISZERO PUSH2 0x1A32 JUMPI PUSH2 0x1A31 PUSH2 0x15C8 JUMP JUMPDEST JUMPDEST PUSH1 0x0 PUSH2 0x1A40 DUP7 DUP3 DUP8 ADD PUSH2 0x161B JUMP JUMPDEST SWAP4 POP POP PUSH1 0x20 DUP5 ADD CALLDATALOAD PUSH8 0xFFFFFFFFFFFFFFFF DUP2 GT ISZERO PUSH2 0x1A61 JUMPI PUSH2 0x1A60 PUSH2 0x15CD JUMP JUMPDEST JUMPDEST PUSH2 0x1A6D DUP7 DUP3 DUP8 ADD PUSH2 0x19C3 JUMP JUMPDEST SWAP3 POP SWAP3 POP POP SWAP3 POP SWAP3 POP SWAP3 JUMP JUMPDEST PUSH1 0x0 DUP1 REVERT JUMPDEST PUSH32 0x4E487B7100000000000000000000000000000000000000000000000000000000 PUSH1 0x0 MSTORE PUSH1 0x41 PUSH1 0x4 MSTORE PUSH1 0x24 PUSH1 0x0 REVERT JUMPDEST PUSH2 0x1AB6 DUP3 PUSH2 0x1438 JUMP JUMPDEST DUP2 ADD DUP2 DUP2 LT PUSH8 0xFFFFFFFFFFFFFFFF DUP3 GT OR ISZERO PUSH2 0x1AD5 JUMPI PUSH2 0x1AD4 PUSH2 0x1A7E JUMP JUMPDEST JUMPDEST DUP1 PUSH1 0x40 MSTORE POP POP POP JUMP JUMPDEST PUSH1 0x0 PUSH2 0x1AE8 PUSH2 0x15BE JUMP JUMPDEST SWAP1 POP PUSH2 0x1AF4 DUP3 DUP3 PUSH2 0x1AAD JUMP JUMPDEST SWAP2 SWAP1 POP JUMP JUMPDEST PUSH1 0x0 PUSH8 0xFFFFFFFFFFFFFFFF DUP3 GT ISZERO PUSH2 0x1B14 JUMPI PUSH2 0x1B13 PUSH2 0x1A7E JUMP JUMPDEST JUMPDEST PUSH2 0x1B1D DUP3 PUSH2 0x1438 JUMP JUMPDEST SWAP1 POP PUSH1 0x20 DUP2 ADD SWAP1 POP SWAP2 SWAP1 POP JUMP JUMPDEST DUP3 DUP2 DUP4 CALLDATACOPY PUSH1 0x0 DUP4 DUP4 ADD MSTORE POP POP POP JUMP JUMPDEST PUSH1 0x0 PUSH2 0x1B4C PUSH2 0x1B47 DUP5 PUSH2 0x1AF9 JUMP JUMPDEST PUSH2 0x1ADE JUMP JUMPDEST SWAP1 POP DUP3 DUP2 MSTORE PUSH1 0x20 DUP2 ADD DUP5 DUP5 DUP5 ADD GT ISZERO PUSH2 0x1B68 JUMPI PUSH2 0x1B67 PUSH2 0x1A79 JUMP JUMPDEST JUMPDEST PUSH2 0x1B73 DUP5 DUP3 DUP6 PUSH2 0x1B2A JUMP JUMPDEST POP SWAP4 SWAP3 POP POP POP JUMP JUMPDEST PUSH1 0x0 DUP3 PUSH1 0x1F DUP4 ADD SLT PUSH2 0x1B90 JUMPI PUSH2 0x1B8F PUSH2 0x19B4 JUMP JUMPDEST JUMPDEST DUP2 CALLDATALOAD PUSH2 0x1BA0 DUP5 DUP3 PUSH1 0x20 DUP7 ADD PUSH2 0x1B39 JUMP JUMPDEST SWAP2 POP POP SWAP3 SWAP2 POP POP JUMP JUMPDEST PUSH1 0x0 DUP1 PUSH1 0x0 PUSH1 0x60 DUP5 DUP7 SUB SLT ISZERO PUSH2 0x1BC2 JUMPI PUSH2 0x1BC1 PUSH2 0x15C8 JUMP JUMPDEST JUMPDEST PUSH1 0x0 DUP5 ADD CALLDATALOAD PUSH8 0xFFFFFFFFFFFFFFFF DUP2 GT ISZERO PUSH2 0x1BE0 JUMPI PUSH2 0x1BDF PUSH2 0x15CD JUMP JUMPDEST JUMPDEST PUSH2 0x1BEC DUP7 DUP3 DUP8 ADD PUSH2 0x1B7B JUMP JUMPDEST SWAP4 POP POP PUSH1 0x20 DUP5 ADD CALLDATALOAD PUSH8 0xFFFFFFFFFFFFFFFF DUP2 GT ISZERO PUSH2 0x1C0D JUMPI PUSH2 0x1C0C PUSH2 0x15CD JUMP JUMPDEST JUMPDEST PUSH2 0x1C19 DUP7 DUP3 DUP8 ADD PUSH2 0x1B7B JUMP JUMPDEST SWAP3 POP POP PUSH1 0x40 DUP5 ADD CALLDATALOAD PUSH8 0xFFFFFFFFFFFFFFFF DUP2 GT ISZERO PUSH2 0x1C3A JUMPI PUSH2 0x1C39 PUSH2 0x15CD JUMP JUMPDEST JUMPDEST PUSH2 0x1C46 DUP7 DUP3 DUP8 ADD PUSH2 0x1B7B JUMP JUMPDEST SWAP2 POP POP SWAP3 POP SWAP3 POP SWAP3 JUMP JUMPDEST PUSH1 0x0 PUSH1 0x40 DUP3 ADD SWAP1 POP PUSH2 0x1C65 PUSH1 0x0 DUP4 ADD DUP6 PUSH2 0x198A JUMP JUMPDEST DUP2 DUP2 SUB PUSH1 0x20 DUP4 ADD MSTORE PUSH2 0x1C77 DUP2 DUP5 PUSH2 0x179E JUMP JUMPDEST SWAP1 POP SWAP4 SWAP3 POP POP POP JUMP JUMPDEST PUSH32 0x4E487B7100000000000000000000000000000000000000000000000000000000 PUSH1 0x0 MSTORE PUSH1 0x22 PUSH1 0x4 MSTORE PUSH1 0x24 PUSH1 0x0 REVERT JUMPDEST PUSH1 0x0 PUSH1 0x2 DUP3 DIV SWAP1 POP PUSH1 0x1 DUP3 AND DUP1 PUSH2 0x1CC7 JUMPI PUSH1 0x7F DUP3 AND SWAP2 POP JUMPDEST PUSH1 0x20 DUP3 LT DUP2 SUB PUSH2 0x1CDA JUMPI PUSH2 0x1CD9 PUSH2 0x1C80 JUMP JUMPDEST JUMPDEST POP SWAP2 SWAP1 POP JUMP JUMPDEST PUSH32 0x496E76616C696420656C656374696F6E20737461746520666F72207468697320 PUSH1 0x0 DUP3 ADD MSTORE PUSH32 0x616374696F6E0000000000000000000000000000000000000000000000000000 PUSH1 0x20 DUP3 ADD MSTORE POP JUMP JUMPDEST PUSH1 0x0 PUSH2 0x1D3C PUSH1 0x26 DUP4 PUSH2 0x178D JUMP JUMPDEST SWAP2 POP PUSH2 0x1D47 DUP3 PUSH2 0x1CE0 JUMP JUMPDEST PUSH1 0x40 DUP3 ADD SWAP1 POP SWAP2 SWAP1 POP JUMP JUMPDEST PUSH1 0x0 PUSH1 0x20 DUP3 ADD SWAP1 POP DUP2 DUP2 SUB PUSH1 0x0 DUP4 ADD MSTORE PUSH2 0x1D6B DUP2 PUSH2 0x1D2F JUMP JUMPDEST SWAP1 POP SWAP2 SWAP1 POP JUMP JUMPDEST PUSH32 0x4E6F74206120766572696669656420766F746572000000000000000000000000 PUSH1 0x0 DUP3 ADD MSTORE POP JUMP JUMPDEST PUSH1 0x0 PUSH2 0x1DA8 PUSH1 0x14 DUP4 PUSH2 0x178D JUMP JUMPDEST SWAP2 POP PUSH2 0x1DB3 DUP3 PUSH2 0x1D72 JUMP JUMPDEST PUSH1 0x20 DUP3 ADD SWAP1 POP SWAP2 SWAP1 POP JUMP JUMPDEST PUSH1 0x0 PUSH1 0x20 DUP3 ADD SWAP1 POP DUP2 DUP2 SUB PUSH1 0x0 DUP4 ADD MSTORE PUSH2 0x1DD7 DUP2 PUSH2 0x1D9B JUMP JUMPDEST SWAP1 POP SWAP2 SWAP1 POP JUMP JUMPDEST PUSH32 0x416C726561647920766F74656400000000000000000000000000000000000000 PUSH1 0x0 DUP3 ADD MSTORE POP JUMP JUMPDEST PUSH1 0x0 PUSH2 0x1E14 PUSH1 0xD DUP4 PUSH2 0x178D JUMP JUMPDEST SWAP2 POP PUSH2 0x1E1F DUP3 PUSH2 0x1DDE JUMP JUMPDEST PUSH1 0x20 DUP3 ADD SWAP1 POP SWAP2 SWAP1 POP JUMP JUMPDEST PUSH1 0x0 PUSH1 0x20 DUP3 ADD SWAP1 POP DUP2 DUP2 SUB PUSH1 0x0 DUP4 ADD MSTORE PUSH2 0x1E43 DUP2 PUSH2 0x1E07 JUMP JUMPDEST SWAP1 POP SWAP2 SWAP1 POP JUMP JUMPDEST PUSH32 0x496E76616C69642063616E646964617465204944000000000000000000000000 PUSH1 0x0 DUP3 ADD MSTORE POP JUMP JUMPDEST PUSH1 0x0 PUSH2 0x1E80 PUSH1 0x14 DUP4 PUSH2 0x178D JUMP JUMPDEST SWAP2 POP PUSH2 0x1E8B DUP3 PUSH2 0x1E4A JUMP JUMPDEST PUSH1 0x20 DUP3 ADD SWAP1 POP SWAP2 SWAP1 POP JUMP JUMPDEST PUSH1 0x0 PUSH1 0x20 DUP3 ADD SWAP1 POP DUP2 DUP2 SUB PUSH1 0x0 DUP4 ADD MSTORE PUSH2 0x1EAF DUP2 PUSH2 0x1E73 JUMP JUMPDEST SWAP1 POP SWAP2 SWAP1 POP JUMP JUMPDEST PUSH32 0x4E487B7100000000000000000000000000000000000000000000000000000000 PUSH1 0x0 MSTORE PUSH1 0x32 PUSH1 0x4 MSTORE PUSH1 0x24 PUSH1 0x0 REVERT JUMPDEST PUSH32 0x4E487B7100000000000000000000000000000000000000000000000000000000 PUSH1 0x0 MSTORE PUSH1 0x11 PUSH1 0x4 MSTORE PUSH1 0x24 PUSH1 0x0 REVERT JUMPDEST PUSH1 0x0 PUSH2 0x1F1F DUP3 PUSH2 0x13D9 JUMP JUMPDEST SWAP2 POP PUSH2 0x1F2A DUP4 PUSH2 0x13D9 JUMP JUMPDEST SWAP3 POP DUP3 DUP3 ADD SWAP1 POP DUP1 DUP3 GT ISZERO PUSH2 0x1F42 JUMPI PUSH2 0x1F41 PUSH2 0x1EE5 JUMP JUMPDEST JUMPDEST SWAP3 SWAP2 POP POP JUMP JUMPDEST PUSH1 0x0 PUSH1 0x40 DUP3 ADD SWAP1 POP PUSH2 0x1F5D PUSH1 0x0 DUP4 ADD DUP6 PUSH2 0x198A JUMP JUMPDEST PUSH2 0x1F6A PUSH1 0x20 DUP4 ADD DUP5 PUSH2 0x177E JUMP JUMPDEST SWAP4 SWAP3 POP POP POP JUMP JUMPDEST PUSH32 0x566F74657220616C726561647920766572696669656400000000000000000000 PUSH1 0x0 DUP3 ADD MSTORE POP JUMP JUMPDEST PUSH1 0x0 PUSH2 0x1FA7 PUSH1 0x16 DUP4 PUSH2 0x178D JUMP JUMPDEST SWAP2 POP PUSH2 0x1FB2 DUP3 PUSH2 0x1F71 JUMP JUMPDEST PUSH1 0x20 DUP3 ADD SWAP1 POP SWAP2 SWAP1 POP JUMP JUMPDEST PUSH1 0x0 PUSH1 0x20 DUP3 ADD SWAP1 POP DUP2 DUP2 SUB PUSH1 0x0 DUP4 ADD MSTORE PUSH2 0x1FD6 DUP2 PUSH2 0x1F9A JUMP JUMPDEST SWAP1 POP SWAP2 SWAP1 POP JUMP JUMPDEST PUSH1 0x0 DUP2 SWAP1 POP DUP2 PUSH1 0x0 MSTORE PUSH1 0x20 PUSH1 0x0 KECCAK256 SWAP1 POP SWAP2 SWAP1 POP JUMP JUMPDEST PUSH1 0x0 PUSH1 0x20 PUSH1 0x1F DUP4 ADD DIV SWAP1 POP SWAP2 SWAP1 POP JUMP JUMPDEST PUSH1 0x0 DUP3 DUP3 SHL SWAP1 POP SWAP3 SWAP2 POP POP JUMP JUMPDEST PUSH1 0x0 PUSH1 0x8 DUP4 MUL PUSH2 0x203F PUSH32 0xFFFFFFFFFFFFFFFFFFFFFFFFFFFFFFFFFFFFFFFFFFFFFFFFFFFFFFFFFFFFFFFF DUP3 PUSH2 0x2002 JUMP JUMPDEST PUSH2 0x2049 DUP7 DUP4 PUSH2 0x2002 JUMP JUMPDEST SWAP6 POP DUP1 NOT DUP5 AND SWAP4 POP DUP1 DUP7 AND DUP5 OR SWAP3 POP POP POP SWAP4 SWAP3 POP POP POP JUMP JUMPDEST PUSH1 0x0 DUP2 SWAP1 POP SWAP2 SWAP1 POP JUMP JUMPDEST PUSH1 0x0 PUSH2 0x2086 PUSH2 0x2081 PUSH2 0x207C DUP5 PUSH2 0x13D9 JUMP JUMPDEST PUSH2 0x2061 JUMP JUMPDEST PUSH2 0x13D9 JUMP JUMPDEST SWAP1 POP SWAP2 SWAP1 POP JUMP JUMPDEST PUSH1 0x0 DUP2 SWAP1 POP SWAP2 SWAP1 POP JUMP JUMPDEST PUSH2 0x20A0 DUP4 PUSH2 0x206B JUMP JUMPDEST PUSH2 0x20B4 PUSH2 0x20AC DUP3 PUSH2 0x208D JUMP JUMPDEST DUP5 DUP5 SLOAD PUSH2 0x200F JUMP JUMPDEST DUP3 SSTORE POP POP POP POP JUMP JUMPDEST PUSH1 0x0 SWAP1 JUMP JUMPDEST PUSH2 0x20C9 PUSH2 0x20BC JUMP JUMPDEST PUSH2 0x20D4 DUP2 DUP5 DUP5 PUSH2 0x2097 JUMP JUMPDEST POP POP POP JUMP JUMPDEST JUMPDEST DUP2 DUP2 LT ISZERO PUSH2 0x20F8 JUMPI PUSH2 0x20ED PUSH1 0x0 DUP3 PUSH2 0x20C1 JUMP JUMPDEST PUSH1 0x1 DUP2 ADD SWAP1 POP PUSH2 0x20DA JUMP JUMPDEST POP POP JUMP JUMPDEST PUSH1 0x1F DUP3 GT ISZERO PUSH2 0x213D JUMPI PUSH2 0x210E DUP2 PUSH2 0x1FDD JUMP JUMPDEST PUSH2 0x2117 DUP5 PUSH2 0x1FF2 JUMP JUMPDEST DUP2 ADD PUSH1 0x20 DUP6 LT ISZERO PUSH2 0x2126 JUMPI DUP2 SWAP1 POP JUMPDEST PUSH2 0x213A PUSH2 0x2132 DUP6 PUSH2 0x1FF2 JUMP JUMPDEST DUP4 ADD DUP3 PUSH2 0x20D9 JUMP JUMPDEST POP POP JUMPDEST POP POP POP JUMP JUMPDEST PUSH1 0x0 DUP3 DUP3 SHR SWAP1 POP SWAP3 SWAP2 POP POP JUMP JUMPDEST PUSH1 0x0 PUSH2 0x2160 PUSH1 0x0 NOT DUP5 PUSH1 0x8 MUL PUSH2 0x2142 JUMP JUMPDEST NOT DUP1 DUP4 AND SWAP2 POP POP SWAP3 SWAP2 POP POP JUMP JUMPDEST PUSH1 0x0 PUSH2 0x2179 DUP4 DUP4 PUSH2 0x214F JUMP JUMPDEST SWAP2 POP DUP3 PUSH1 0x2 MUL DUP3 OR SWAP1 POP SWAP3 SWAP2 POP POP JUMP JUMPDEST PUSH2 0x2192 DUP3 PUSH2 0x13F2 JUMP JUMPDEST PUSH8 0xFFFFFFFFFFFFFFFF DUP2 GT ISZERO PUSH2 0x21AB JUMPI PUSH2 0x21AA PUSH2 0x1A7E JUMP JUMPDEST JUMPDEST PUSH2 0x21B5 DUP3 SLOAD PUSH2 0x1CAF JUMP JUMPDEST PUSH2 0x21C0 DUP3 DUP3 DUP6 PUSH2 0x20FC JUMP JUMPDEST PUSH1 0x0 PUSH1 0x20 SWAP1 POP PUSH1 0x1F DUP4 GT PUSH1 0x1 DUP2 EQ PUSH2 0x21F3 JUMPI PUSH1 0x0 DUP5 ISZERO PUSH2 0x21E1 JUMPI DUP3 DUP8 ADD MLOAD SWAP1 POP JUMPDEST PUSH2 0x21EB DUP6 DUP3 PUSH2 0x216D JUMP JUMPDEST DUP7 SSTORE POP PUSH2 0x2253 JUMP JUMPDEST PUSH1 0x1F NOT DUP5 AND PUSH2 0x2201 DUP7 PUSH2 0x1FDD JUMP JUMPDEST PUSH1 0x0 JUMPDEST DUP3 DUP2 LT ISZERO PUSH2 0x2229 JUMPI DUP5 DUP10 ADD MLOAD DUP3 SSTORE PUSH1 0x1 DUP3 ADD SWAP2 POP PUSH1 0x20 DUP6 ADD SWAP5 POP PUSH1 0x20 DUP2 ADD SWAP1 POP PUSH2 0x2204 JUMP JUMPDEST DUP7 DUP4 LT ISZERO PUSH2 0x2246 JUMPI DUP5 DUP10 ADD MLOAD PUSH2 0x2242 PUSH1 0x1F DUP10 AND DUP3 PUSH2 0x214F JUMP JUMPDEST DUP4 SSTORE POP JUMPDEST PUSH1 0x1 PUSH1 0x2 DUP9 MUL ADD DUP9 SSTORE POP POP POP JUMPDEST POP POP POP POP POP POP JUMP JUMPDEST PUSH1 0x0 PUSH2 0x2267 DUP4 DUP6 PUSH2 0x178D JUMP JUMPDEST SWAP4 POP PUSH2 0x2274 DUP4 DUP6 DUP5 PUSH2 0x1B2A JUMP JUMPDEST PUSH2 0x227D DUP4 PUSH2 0x1438 JUMP JUMPDEST DUP5 ADD SWAP1 POP SWAP4 SWAP3 POP POP POP JUMP JUMPDEST PUSH1 0x0 PUSH1 0x40 DUP3 ADD SWAP1 POP PUSH2 0x229D PUSH1 0x0 DUP4 ADD DUP7 PUSH2 0x198A JUMP JUMPDEST DUP2 DUP2 SUB PUSH1 0x20 DUP4 ADD MSTORE PUSH2 0x22B0 DUP2 DUP5 DUP7 PUSH2 0x225B JUMP JUMPDEST SWAP1 POP SWAP5 SWAP4 POP POP POP POP JUMP JUMPDEST PUSH1 0x0 PUSH1 0x40 DUP3 ADD SWAP1 POP PUSH2 0x22CF PUSH1 0x0 DUP4 ADD DUP6 PUSH2 0x177E JUMP JUMPDEST DUP2 DUP2 SUB PUSH1 0x20 DUP4 ADD MSTORE PUSH2 0x22E1 DUP2 DUP5 PUSH2 0x179E JUMP JUMPDEST SWAP1 POP SWAP4 SWAP3 POP POP POP JUMP INVALID LOG2 PUSH5 0x6970667358 0x22 SLT KECCAK256 0x1E 0xC0 0xCC 0xEA DELEGATECALL DUP5 PUSH31 0x3173A710412898EFEA33B9D18231A1E4494C21CBFC4C18BF1F64736F6C6343 STOP ADDMOD EQ STOP CALLER "},"methodIdentifiers":{"addCandidate(string,string,string)":"ad71f8dc","candidates(uint256)":"3477ee2e","castVote(uint256)":"3eb76b9c","currentState()":"0c3f6acf","endVoting()":"c3403ddf","getCandidates()":"06a49fce","getWhitelistedVoters()":"78905e2e","hasVoted(address)":"09eef43e","isVerifiedVoter(address)":"dfb6b1e8","owner()":"8da5cb5b","renounceOwnership()":"715018a6","startVoting()":"1ec6b60a","totalVotesCast()":"7de418d5","transferOwnership(address)":"f2fde38b","whitelistVoter(address,string)":"9153bfb8","whitelistedVotersList(uint256)":"dc03d485"}}}}}