{
  "_format": "hh-sol-artifact-1",
  "contractName": "VotingManagement",
  "sourceName": "contracts/VotingManagement.sol",
  "abi": [
    {
      "inputs": [],
      "stateMutability": "nonpayable",
      "type": "constructor"
    },
    {
      "inputs": [
        {
          "internalType": "address",
          "name": "owner",
          "type": "address"
        }
      ],
      "name": "OwnableInvalidOwner",
      "type": "error"
    },
    {
      "inputs": [
        {
          "internalType": "address",
          "name": "account",
          "type": "address"
        }
      ],
      "name": "OwnableUnauthorizedAccount",
      "type": "error"
    },
    {
      "anonymous": false,
      "inputs": [
        {
          "indexed": false,
          "internalType": "uint256",
          "name": "candidateId",
          "type": "uint256"
        },
        {
          "indexed": false,
          "internalType": "string",
          "name": "name",
          "type": "string"
        }
      ],
      "name": "CandidateAdded",
      "type": "event"
    },
    {
      "anonymous": false,
      "inputs": [
        {
          "indexed": false,
          "internalType": "enum VotingManagement.ElectionState",
          "name": "newState",
          "type": "uint8"
        }
      ],
      "name": "ElectionStateChanged",
      "type": "event"
    },
    {
      "anonymous": false,
      "inputs": [
        {
          "indexed": true,
          "internalType": "address",
          "name": "previousOwner",
          "type": "address"
        },
        {
          "indexed": true,
          "internalType": "address",
          "name": "newOwner",
          "type": "address"
        }
      ],
      "name": "OwnershipTransferred",
      "type": "event"
    },
    {
      "anonymous": false,
      "inputs": [
        {
          "indexed": false,
          "internalType": "address",
          "name": "voter",
          "type": "address"
        },
        {
          "indexed": false,
          "internalType": "uint256",
          "name": "candidateId",
          "type": "uint256"
        }
      ],
      "name": "VoteCast",
      "type": "event"
    },
    {
      "anonymous": false,
      "inputs": [
        {
          "indexed": false,
          "internalType": "address",
          "name": "voter",
          "type": "address"
        },
        {
          "indexed": false,
          "internalType": "string",
          "name": "name",
          "type": "string"
        }
      ],
      "name": "VoterVerified",
      "type": "event"
    },
    {
      "inputs": [
        {
          "internalType": "string",
          "name": "_name",
          "type": "string"
        },
        {
          "internalType": "string",
          "name": "_party",
          "type": "string"
        },
        {
          "internalType": "string",
          "name": "_symbolUrl",
          "type": "string"
        }
      ],
      "name": "addCandidate",
      "outputs": [],
      "stateMutability": "nonpayable",
      "type": "function"
    },
    {
      "inputs": [
        {
          "internalType": "uint256",
          "name": "",
          "type": "uint256"
        }
      ],
      "name": "candidates",
      "outputs": [
        {
          "internalType": "uint256",
          "name": "id",
          "type": "uint256"
        },
        {
          "internalType": "string",
          "name": "name",
          "type": "string"
        },
        {
          "internalType": "string",
          "name": "party",
          "type": "string"
        },
        {
          "internalType": "string",
          "name": "symbolUrl",
          "type": "string"
        },
        {
          "internalType": "uint256",
          "name": "voteCount",
          "type": "uint256"
        }
      ],
      "stateMutability": "view",
      "type": "function"
    },
    {
      "inputs": [
        {
          "internalType": "uint256",
          "name": "_candidateId",
          "type": "uint256"
        }
      ],
      "name": "castVote",
      "outputs": [],
      "stateMutability": "nonpayable",
      "type": "function"
    },
    {
      "inputs": [],
      "name": "currentState",
      "outputs": [
        {
          "internalType": "enum VotingManagement.ElectionState",
          "name": "",
          "type": "uint8"
        }
      ],
      "stateMutability": "view",
      "type": "function"
    },
    {
      "inputs": [],
      "name": "endVoting",
      "outputs": [],
      "stateMutability": "nonpayable",
      "type": "function"
    },
    {
      "inputs": [],
      "name": "getCandidates",
      "outputs": [
        {
          "components": [
            {
              "internalType": "uint256",
              "name": "id",
              "type": "uint256"
            },
            {
              "internalType": "string",
              "name": "name",
              "type": "string"
            },
            {
              "internalType": "string",
              "name": "party",
              "type": "string"
            },
            {
              "internalType": "string",
              "name": "symbolUrl",
              "type": "string"
            },
            {
              "internalType": "uint256",
              "name": "voteCount",
              "type": "uint256"
            }
          ],
          "internalType": "struct VotingManagement.Candidate[]",
          "name": "",
          "type": "tuple[]"
        }
      ],
      "stateMutability": "view",
      "type": "function"
    },
    {
      "inputs": [],
      "name": "getWhitelistedVoters",
      "outputs": [
        {
          "components": [
            {
              "internalType": "address",
              "name": "walletAddress",
              "type": "address"
            },
            {
              "internalType": "string",
              "name": "name",
              "type": "string"
            }
          ],
          "internalType": "struct VotingManagement.Voter[]",
          "name": "",
          "type": "tuple[]"
        }
      ],
      "stateMutability": "view",
      "type": "function"
    },
    {
      "inputs": [
        {
          "internalType": "address",
          "name": "",
          "type": "address"
        }
      ],
      "name": "hasVoted",
      "outputs": [
        {
          "internalType": "bool",
          "name": "",
          "type": "bool"
        }
      ],
      "stateMutability": "view",
      "type": "function"
    },
    {
      "inputs": [
        {
          "internalType": "address",
          "name": "",
          "type": "address"
        }
      ],
      "name": "isVerifiedVoter",
      "outputs": [
        {
          "internalType": "bool",
          "name": "",
          "type": "bool"
        }
      ],
      "stateMutability": "view",
      "type": "function"
    },
    {
      "inputs": [],
      "name": "owner",
      "outputs": [
        {
          "internalType": "address",
          "name": "",
          "type": "address"
        }
      ],
      "stateMutability": "view",
      "type": "function"
    },
    {
      "inputs": [],
      "name": "renounceOwnership",
      "outputs": [],
      "stateMutability": "nonpayable",
      "type": "function"
    },
    {
      "inputs": [],
      "name": "startVoting",
      "outputs": [],
      "stateMutability": "nonpayable",
      "type": "function"
    },
    {
      "inputs": [],
      "name": "totalVotesCast",
      "outputs": [
        {
          "internalType": "uint256",
          "name": "",
          "type": "uint256"
        }
      ],
      "stateMutability": "view",
      "type": "function"
    },
    {
      "inputs": [
        {
          "internalType": "address",
          "name": "newOwner",
          "type": "address"
        }
      ],
      "name": "transferOwnership",
      "outputs": [],
      "stateMutability": "nonpayable",
      "type": "function"
    },
    {
      "inputs": [
        {
          "internalType": "address",
          "name": "_voter",
          "type": "address"
        },
        {
          "internalType": "string",
          "name": "_name",
          "type": "string"
        }
      ],
      "name": "whitelistVoter",
      "outputs": [],
      "stateMutability": "nonpayable",
      "type": "function"
    },
    {
      "inputs": [
        {
          "internalType": "uint256",
          "name": "",
          "type": "uint256"
        }
      ],
      "name": "whitelistedVotersList",
      "outputs": [
        {
          "internalType": "address",
          "name": "walletAddress",
          "type": "address"
        },
        {
          "internalType": "string",
          "name": "name",
          "type": "string"
        }
      ],
      "stateMutability": "view",
      "type": "function"
    }
  ],
  "bytecode": "0x60806040523480156200001157600080fd5b5033600073ffffffffffffffffffffffffffffffffffffffff168173ffffffffffffffffffffffffffffffffffffffff1603620000885760006040517f1e4fbdf70000000000000000000000000000000000000000000000000000000081526004016200007f9190620001d6565b60405180910390fd5b6200009981620000cd60201b60201c565b5060008060146101000a81548160ff02191690836002811115620000c257620000c1620001f3565b5b021790555062000222565b60008060009054906101000a900473ffffffffffffffffffffffffffffffffffffffff169050816000806101000a81548173ffffffffffffffffffffffffffffffffffffffff021916908373ffffffffffffffffffffffffffffffffffffffff1602179055508173ffffffffffffffffffffffffffffffffffffffff168173ffffffffffffffffffffffffffffffffffffffff167f8be0079c531659141344cd1fd0a4f28419497f9722a3daafe3b4186f6b6457e060405160405180910390a35050565b600073ffffffffffffffffffffffffffffffffffffffff82169050919050565b6000620001be8262000191565b9050919050565b620001d081620001b1565b82525050565b6000602082019050620001ed6000830184620001c5565b92915050565b7f4e487b7100000000000000000000000000000000000000000000000000000000600052602160045260246000fd5b61232080620002326000396000f3fe608060405234801561001057600080fd5b50600436106101005760003560e01c80637de418d511610097578063c3403ddf11610066578063c3403ddf14610267578063dc03d48514610271578063dfb6b1e8146102a2578063f2fde38b146102d257610100565b80637de418d5146101f35780638da5cb5b146102115780639153bfb81461022f578063ad71f8dc1461024b57610100565b80633477ee2e116100d35780633477ee2e1461017b5780633eb76b9c146101af578063715018a6146101cb57806378905e2e146101d557610100565b806306a49fce1461010557806309eef43e146101235780630c3f6acf146101535780631ec6b60a14610171575b600080fd5b61010d6102ee565b60405161011a919061159c565b60405180910390f35b61013d60048036038101906101389190611630565b610517565b60405161014a9190611678565b60405180910390f35b61015b610537565b604051610168919061170a565b60405180910390f35b61017961054a565b005b61019560048036038101906101909190611751565b61062f565b6040516101a69594939291906117d7565b60405180910390f35b6101c960048036038101906101c49190611751565b61080d565b005b6101d3610ad0565b005b6101dd610ae4565b6040516101ea919061194d565b60405180910390f35b6101fb610c2b565b604051610208919061196f565b60405180910390f35b610219610c31565b6040516102269190611999565b60405180910390f35b61024960048036038101906102449190611a19565b610c5a565b005b61026560048036038101906102609190611ba9565b610e7f565b005b61026f610ff3565b005b61028b60048036038101906102869190611751565b6110d8565b604051610299929190611c50565b60405180910390f35b6102bc60048036038101906102b79190611630565b6111b4565b6040516102c99190611678565b60405180910390f35b6102ec60048036038101906102e79190611630565b6111d4565b005b60606003805480602002602001604051908101604052809291908181526020016000905b8282101561050e57838290600052602060002090600502016040518060a00160405290816000820154815260200160018201805461034f90611caf565b80601f016020809104026020016040519081016040528092919081815260200182805461037b90611caf565b80156103c85780601f1061039d576101008083540402835291602001916103c8565b820191906000526020600020905b8154815290600101906020018083116103ab57829003601f168201915b505050505081526020016002820180546103e190611caf565b80601f016020809104026020016040519081016040528092919081815260200182805461040d90611caf565b801561045a5780601f1061042f5761010080835404028352916020019161045a565b820191906000526020600020905b81548152906001019060200180831161043d57829003601f168201915b5050505050815260200160038201805461047390611caf565b80601f016020809104026020016040519081016040528092919081815260200182805461049f90611caf565b80156104ec5780601f106104c1576101008083540402835291602001916104ec565b820191906000526020600020905b8154815290600101906020018083116104cf57829003601f168201915b5050505050815260200160048201548152505081526020019060010190610312565b50505050905090565b60026020528060005260406000206000915054906101000a900460ff1681565b600060149054906101000a900460ff1681565b61055261125a565b600080600281111561056757610566611693565b5b600060149054906101000a900460ff16600281111561058957610588611693565b5b146105c9576040517f08c379a00000000000000000000000000000000000000000000000000000000081526004016105c090611d52565b60405180910390fd5b6001600060146101000a81548160ff021916908360028111156105ef576105ee611693565b5b02179055507f82aa0cc22cbb103bd5f28a40c65b9e63f2df333bbb70c6c9128eb83d7cb1041d6001604051610624919061170a565b60405180910390a150565b6003818154811061063f57600080fd5b906000526020600020906005020160009150905080600001549080600101805461066890611caf565b80601f016020809104026020016040519081016040528092919081815260200182805461069490611caf565b80156106e15780601f106106b6576101008083540402835291602001916106e1565b820191906000526020600020905b8154815290600101906020018083116106c457829003601f168201915b5050505050908060020180546106f690611caf565b80601f016020809104026020016040519081016040528092919081815260200182805461072290611caf565b801561076f5780601f106107445761010080835404028352916020019161076f565b820191906000526020600020905b81548152906001019060200180831161075257829003601f168201915b50505050509080600301805461078490611caf565b80601f01602080910402602001604051908101604052809291908181526020018280546107b090611caf565b80156107fd5780601f106107d2576101008083540402835291602001916107fd565b820191906000526020600020905b8154815290600101906020018083116107e057829003601f168201915b5050505050908060040154905085565b600180600281111561082257610821611693565b5b600060149054906101000a900460ff16600281111561084457610843611693565b5b14610884576040517f08c379a000000000000000000000000000000000000000000000000000000000815260040161087b90611d52565b60405180910390fd5b600160003373ffffffffffffffffffffffffffffffffffffffff1673ffffffffffffffffffffffffffffffffffffffff16815260200190815260200160002060009054906101000a900460ff16610910576040517f08c379a000000000000000000000000000000000000000000000000000000000815260040161090790611dbe565b60405180910390fd5b600260003373ffffffffffffffffffffffffffffffffffffffff1673ffffffffffffffffffffffffffffffffffffffff16815260200190815260200160002060009054906101000a900460ff161561099d576040517f08c379a000000000000000000000000000000000000000000000000000000000815260040161099490611e2a565b60405180910390fd5b60038054905082106109e4576040517f08c379a00000000000000000000000000000000000000000000000000000000081526004016109db90611e96565b60405180910390fd5b6001600260003373ffffffffffffffffffffffffffffffffffffffff1673ffffffffffffffffffffffffffffffffffffffff16815260200190815260200160002060006101000a81548160ff021916908315150217905550600160038381548110610a5257610a51611eb6565b5b90600052602060002090600502016004016000828254610a729190611f14565b92505081905550600160056000828254610a8c9190611f14565b925050819055507fa36cc2bebb74db33e9f88110a07ef56e1b31b24b4c4f51b54b1664266e29f45b3383604051610ac4929190611f48565b60405180910390a15050565b610ad861125a565b610ae260006112e1565b565b60606004805480602002602001604051908101604052809291908181526020016000905b82821015610c2257838290600052602060002090600202016040518060400160405290816000820160009054906101000a900473ffffffffffffffffffffffffffffffffffffffff1673ffffffffffffffffffffffffffffffffffffffff1673ffffffffffffffffffffffffffffffffffffffff168152602001600182018054610b9190611caf565b80601f0160208091040260200160405190810160405280929190818152602001828054610bbd90611caf565b8015610c0a5780601f10610bdf57610100808354040283529160200191610c0a565b820191906000526020600020905b815481529060010190602001808311610bed57829003601f168201915b50505050508152505081526020019060010190610b08565b50505050905090565b60055481565b60008060009054906101000a900473ffffffffffffffffffffffffffffffffffffffff16905090565b610c6261125a565b600160008473ffffffffffffffffffffffffffffffffffffffff1673ffffffffffffffffffffffffffffffffffffffff16815260200190815260200160002060009054906101000a900460ff1615610cef576040517f08c379a0000000000000000000000000000000000000000000000000000000008152600401610ce690611fbd565b60405180910390fd5b60018060008573ffffffffffffffffffffffffffffffffffffffff1673ffffffffffffffffffffffffffffffffffffffff16815260200190815260200160002060006101000a81548160ff021916908315150217905550600460405180604001604052808573ffffffffffffffffffffffffffffffffffffffff16815260200184848080601f016020809104026020016040519081016040528093929190818152602001838380828437600081840152601f19601f82011690508083019250505050505050815250908060018154018082558091505060019003906000526020600020906002020160009091909190915060008201518160000160006101000a81548173ffffffffffffffffffffffffffffffffffffffff021916908373ffffffffffffffffffffffffffffffffffffffff1602179055506020820151816001019081610e3c9190612189565b5050507f02d58685ec3349d0400ea2990a81e813f67c21d1a878ba6c09ca0893df4f6cbb838383604051610e7293929190612288565b60405180910390a1505050565b610e8761125a565b6000806002811115610e9c57610e9b611693565b5b600060149054906101000a900460ff166002811115610ebe57610ebd611693565b5b14610efe576040517f08c379a0000000000000000000000000000000000000000000000000000000008152600401610ef590611d52565b60405180910390fd5b6000600380549050905060036040518060a0016040528083815260200187815260200186815260200185815260200160008152509080600181540180825580915050600190039060005260206000209060050201600090919091909150600082015181600001556020820151816001019081610f7a9190612189565b506040820151816002019081610f909190612189565b506060820151816003019081610fa69190612189565b506080820151816004015550507fe83b2a43e7e82d975c8a0a6d2f045153c869e111136a34d1889ab7b598e396a38186604051610fe49291906122ba565b60405180910390a15050505050565b610ffb61125a565b60018060028111156110105761100f611693565b5b600060149054906101000a900460ff16600281111561103257611031611693565b5b14611072576040517f08c379a000000000000000000000000000000000000000000000000000000000815260040161106990611d52565b60405180910390fd5b6002600060146101000a81548160ff0219169083600281111561109857611097611693565b5b02179055507f82aa0cc22cbb103bd5f28a40c65b9e63f2df333bbb70c6c9128eb83d7cb1041d60026040516110cd919061170a565b60405180910390a150565b600481815481106110e857600080fd5b90600052602060002090600202016000915090508060000160009054906101000a900473ffffffffffffffffffffffffffffffffffffffff169080600101805461113190611caf565b80601f016020809104026020016040519081016040528092919081815260200182805461115d90611caf565b80156111aa5780601f1061117f576101008083540402835291602001916111aa565b820191906000526020600020905b81548152906001019060200180831161118d57829003601f168201915b5050505050905082565b60016020528060005260406000206000915054906101000a900460ff1681565b6111dc61125a565b600073ffffffffffffffffffffffffffffffffffffffff168173ffffffffffffffffffffffffffffffffffffffff160361124e5760006040517f1e4fbdf70000000000000000000000000000000000000000000000000000000081526004016112459190611999565b60405180910390fd5b611257816112e1565b50565b6112626113a5565b73ffffffffffffffffffffffffffffffffffffffff16611280610c31565b73ffffffffffffffffffffffffffffffffffffffff16146112df576112a36113a5565b6040517f118cdaa70000000000000000000000000000000000000000000000000000000081526004016112d69190611999565b60405180910390fd5b565b60008060009054906101000a900473ffffffffffffffffffffffffffffffffffffffff169050816000806101000a81548173ffffffffffffffffffffffffffffffffffffffff021916908373ffffffffffffffffffffffffffffffffffffffff1602179055508173ffffffffffffffffffffffffffffffffffffffff168173ffffffffffffffffffffffffffffffffffffffff167f8be0079c531659141344cd1fd0a4f28419497f9722a3daafe3b4186f6b6457e060405160405180910390a35050565b600033905090565b600081519050919050565b600082825260208201905092915050565b6000819050602082019050919050565b6000819050919050565b6113ec816113d9565b82525050565b600081519050919050565b600082825260208201905092915050565b60005b8381101561142c578082015181840152602081019050611411565b60008484015250505050565b6000601f19601f8301169050919050565b6000611454826113f2565b61145e81856113fd565b935061146e81856020860161140e565b61147781611438565b840191505092915050565b600060a08301600083015161149a60008601826113e3565b50602083015184820360208601526114b28282611449565b915050604083015184820360408601526114cc8282611449565b915050606083015184820360608601526114e68282611449565b91505060808301516114fb60808601826113e3565b508091505092915050565b60006115128383611482565b905092915050565b6000602082019050919050565b6000611532826113ad565b61153c81856113b8565b93508360208202850161154e856113c9565b8060005b8581101561158a578484038952815161156b8582611506565b94506115768361151a565b925060208a01995050600181019050611552565b50829750879550505050505092915050565b600060208201905081810360008301526115b68184611527565b905092915050565b6000604051905090565b600080fd5b600080fd5b600073ffffffffffffffffffffffffffffffffffffffff82169050919050565b60006115fd826115d2565b9050919050565b61160d816115f2565b811461161857600080fd5b50565b60008135905061162a81611604565b92915050565b600060208284031215611646576116456115c8565b5b60006116548482850161161b565b91505092915050565b60008115159050919050565b6116728161165d565b82525050565b600060208201905061168d6000830184611669565b92915050565b7f4e487b7100000000000000000000000000000000000000000000000000000000600052602160045260246000fd5b600381106116d3576116d2611693565b5b50565b60008190506116e4826116c2565b919050565b60006116f4826116d6565b9050919050565b611704816116e9565b82525050565b600060208201905061171f60008301846116fb565b92915050565b61172e816113d9565b811461173957600080fd5b50565b60008135905061174b81611725565b92915050565b600060208284031215611767576117666115c8565b5b60006117758482850161173c565b91505092915050565b611787816113d9565b82525050565b600082825260208201905092915050565b60006117a9826113f2565b6117b3818561178d565b93506117c381856020860161140e565b6117cc81611438565b840191505092915050565b600060a0820190506117ec600083018861177e565b81810360208301526117fe818761179e565b90508181036040830152611812818661179e565b90508181036060830152611826818561179e565b9050611835608083018461177e565b9695505050505050565b600081519050919050565b600082825260208201905092915050565b6000819050602082019050919050565b611874816115f2565b82525050565b6000604083016000830151611892600086018261186b565b50602083015184820360208601526118aa8282611449565b9150508091505092915050565b60006118c3838361187a565b905092915050565b6000602082019050919050565b60006118e38261183f565b6118ed818561184a565b9350836020820285016118ff8561185b565b8060005b8581101561193b578484038952815161191c85826118b7565b9450611927836118cb565b925060208a01995050600181019050611903565b50829750879550505050505092915050565b6000602082019050818103600083015261196781846118d8565b905092915050565b6000602082019050611984600083018461177e565b92915050565b611993816115f2565b82525050565b60006020820190506119ae600083018461198a565b92915050565b600080fd5b600080fd5b600080fd5b60008083601f8401126119d9576119d86119b4565b5b8235905067ffffffffffffffff8111156119f6576119f56119b9565b5b602083019150836001820283011115611a1257611a116119be565b5b9250929050565b600080600060408486031215611a3257611a316115c8565b5b6000611a408682870161161b565b935050602084013567ffffffffffffffff811115611a6157611a606115cd565b5b611a6d868287016119c3565b92509250509250925092565b600080fd5b7f4e487b7100000000000000000000000000000000000000000000000000000000600052604160045260246000fd5b611ab682611438565b810181811067ffffffffffffffff82111715611ad557611ad4611a7e565b5b80604052505050565b6000611ae86115be565b9050611af48282611aad565b919050565b600067ffffffffffffffff821115611b1457611b13611a7e565b5b611b1d82611438565b9050602081019050919050565b82818337600083830152505050565b6000611b4c611b4784611af9565b611ade565b905082815260208101848484011115611b6857611b67611a79565b5b611b73848285611b2a565b509392505050565b600082601f830112611b9057611b8f6119b4565b5b8135611ba0848260208601611b39565b91505092915050565b600080600060608486031215611bc257611bc16115c8565b5b600084013567ffffffffffffffff811115611be057611bdf6115cd565b5b611bec86828701611b7b565b935050602084013567ffffffffffffffff811115611c0d57611c0c6115cd565b5b611c1986828701611b7b565b925050604084013567ffffffffffffffff811115611c3a57611c396115cd565b5b611c4686828701611b7b565b9150509250925092565b6000604082019050611c65600083018561198a565b8181036020830152611c77818461179e565b90509392505050565b7f4e487b7100000000000000000000000000000000000000000000000000000000600052602260045260246000fd5b60006002820490506001821680611cc757607f821691505b602082108103611cda57611cd9611c80565b5b50919050565b7f496e76616c696420656c656374696f6e20737461746520666f7220746869732060008201527f616374696f6e0000000000000000000000000000000000000000000000000000602082015250565b6000611d3c60268361178d565b9150611d4782611ce0565b604082019050919050565b60006020820190508181036000830152611d6b81611d2f565b9050919050565b7f4e6f74206120766572696669656420766f746572000000000000000000000000600082015250565b6000611da860148361178d565b9150611db382611d72565b602082019050919050565b60006020820190508181036000830152611dd781611d9b565b9050919050565b7f416c726561647920766f74656400000000000000000000000000000000000000600082015250565b6000611e14600d8361178d565b9150611e1f82611dde565b602082019050919050565b60006020820190508181036000830152611e4381611e07565b9050919050565b7f496e76616c69642063616e646964617465204944000000000000000000000000600082015250565b6000611e8060148361178d565b9150611e8b82611e4a565b602082019050919050565b60006020820190508181036000830152611eaf81611e73565b9050919050565b7f4e487b7100000000000000000000000000000000000000000000000000000000600052603260045260246000fd5b7f4e487b7100000000000000000000000000000000000000000000000000000000600052601160045260246000fd5b6000611f1f826113d9565b9150611f2a836113d9565b9250828201905080821115611f4257611f41611ee5565b5b92915050565b6000604082019050611f5d600083018561198a565b611f6a602083018461177e565b9392505050565b7f566f74657220616c726561647920766572696669656400000000000000000000600082015250565b6000611fa760168361178d565b9150611fb282611f71565b602082019050919050565b60006020820190508181036000830152611fd681611f9a565b9050919050565b60008190508160005260206000209050919050565b60006020601f8301049050919050565b600082821b905092915050565b60006008830261203f7fffffffffffffffffffffffffffffffffffffffffffffffffffffffffffffffff82612002565b6120498683612002565b95508019841693508086168417925050509392505050565b6000819050919050565b600061208661208161207c846113d9565b612061565b6113d9565b9050919050565b6000819050919050565b6120a08361206b565b6120b46120ac8261208d565b84845461200f565b825550505050565b600090565b6120c96120bc565b6120d4818484612097565b505050565b5b818110156120f8576120ed6000826120c1565b6001810190506120da565b5050565b601f82111561213d5761210e81611fdd565b61211784611ff2565b81016020851015612126578190505b61213a61213285611ff2565b8301826120d9565b50505b505050565b600082821c905092915050565b600061216060001984600802612142565b1980831691505092915050565b6000612179838361214f565b9150826002028217905092915050565b612192826113f2565b67ffffffffffffffff8111156121ab576121aa611a7e565b5b6121b58254611caf565b6121c08282856120fc565b600060209050601f8311600181146121f357600084156121e1578287015190505b6121eb858261216d565b865550612253565b601f19841661220186611fdd565b60005b8281101561222957848901518255600182019150602085019450602081019050612204565b868310156122465784890151612242601f89168261214f565b8355505b6001600288020188555050505b505050505050565b6000612267838561178d565b9350612274838584611b2a565b61227d83611438565b840190509392505050565b600060408201905061229d600083018661198a565b81810360208301526122b081848661225b565b9050949350505050565b60006040820190506122cf600083018561177e565b81810360208301526122e1818461179e565b9050939250505056fea26469706673582212201ec0cceaf4847e3173a710412898efea33b9d18231a1e4494c21cbfc4c18bf1f64736f6c63430008140033",
  "linkReferences": {},
  "deployedLinkReferences": {}
}