{
  "contractName": "VotingManagement",
  "abi": [
    {
      "inputs": [],
      "stateMutability": "nonpayable",
      "type": "constructor"
    },
    {
      "inputs": [
        {
          "internalType": "address",
          "name": "owner",
          "type": "address"
        }
      ],
      "name": "OwnableInvalidOwner",
      "type": "error"
    },
    {
      "inputs": [
        {
          "internalType": "address",
          "name": "account",
          "type": "address"
        }
      ],
      "name": "OwnableUnauthorizedAccount",
      "type": "error"
    },
    {
      "anonymous": false,
      "inputs": [
        {
          "indexed": false,
          "internalType": "uint256",
          "name": "candidateId",
          "type": "uint256"
        },
        {
          "indexed": false,
          "internalType": "string",
          "name": "name",
          "type": "string"
        }
      ],
      "name": "CandidateAdded",
      "type": "event"
    },
    {
      "anonymous": false,
      "inputs": [
        {
          "indexed": false,
          "internalType": "enum VotingManagement.ElectionState",
          "name": "newState",
          "type": "uint8"
        }
      ],
      "name": "ElectionStateChanged",
      "type": "event"
    },
    {
      "anonymous": false,
      "inputs": [
        {
          "indexed": true,
          "internalType": "address",
          "name": "previousOwner",
          "type": "address"
        },
        {
          "indexed": true,
          "internalType": "address",
          "name": "newOwner",
          "type": "address"
        }
      ],
      "name": "OwnershipTransferred",
      "type": "event"
    },
    {
      "anonymous": false,
      "inputs": [
        {
          "indexed": false,
          "internalType": "address",
          "name": "voter",
          "type": "address"
        },
        {
          "indexed": false,
          "internalType": "uint256",
          "name": "candidateId",
          "type": "uint256"
        }
      ],
      "name": "VoteCast",
      "type": "event"
    },
    {
      "anonymous": false,
      "inputs": [
        {
          "indexed": false,
          "internalType": "address",
          "name": "voter",
          "type": "address"
        }
      ],
      "name": "VoterVerified",
      "type": "event"
    },
    {
      "inputs": [
        {
          "internalType": "uint256",
          "name": "",
          "type": "uint256"
        }
      ],
      "name": "candidates",
      "outputs": [
        {
          "internalType": "uint256",
          "name": "id",
          "type": "uint256"
        },
        {
          "internalType": "string",
          "name": "name",
          "type": "string"
        },
        {
          "internalType": "string",
          "name": "party",
          "type": "string"
        },
        {
          "internalType": "string",
          "name": "symbolUrl",
          "type": "string"
        },
        {
          "internalType": "uint256",
          "name": "voteCount",
          "type": "uint256"
        }
      ],
      "stateMutability": "view",
      "type": "function",
      "constant": true
    },
    {
      "inputs": [],
      "name": "currentState",
      "outputs": [
        {
          "internalType": "enum VotingManagement.ElectionState",
          "name": "",
          "type": "uint8"
        }
      ],
      "stateMutability": "view",
      "type": "function",
      "constant": true
    },
    {
      "inputs": [
        {
          "internalType": "address",
          "name": "",
          "type": "address"
        }
      ],
      "name": "hasVoted",
      "outputs": [
        {
          "internalType": "bool",
          "name": "",
          "type": "bool"
        }
      ],
      "stateMutability": "view",
      "type": "function",
      "constant": true
    },
    {
      "inputs": [
        {
          "internalType": "address",
          "name": "",
          "type": "address"
        }
      ],
      "name": "isVerifiedVoter",
      "outputs": [
        {
          "internalType": "bool",
          "name": "",
          "type": "bool"
        }
      ],
      "stateMutability": "view",
      "type": "function",
      "constant": true
    },
    {
      "inputs": [],
      "name": "owner",
      "outputs": [
        {
          "internalType": "address",
          "name": "",
          "type": "address"
        }
      ],
      "stateMutability": "view",
      "type": "function",
      "constant": true
    },
    {
      "inputs": [],
      "name": "renounceOwnership",
      "outputs": [],
      "stateMutability": "nonpayable",
      "type": "function"
    },
    {
      "inputs": [],
      "name": "totalVotesCast",
      "outputs": [
        {
          "internalType": "uint256",
          "name": "",
          "type": "uint256"
        }
      ],
      "stateMutability": "view",
      "type": "function",
      "constant": true
    },
    {
      "inputs": [
        {
          "internalType": "address",
          "name": "newOwner",
          "type": "address"
        }
      ],
      "name": "transferOwnership",
      "outputs": [],
      "stateMutability": "nonpayable",
      "type": "function"
    },
    {
      "inputs": [
        {
          "internalType": "string",
          "name": "_name",
          "type": "string"
        },
        {
          "internalType": "string",
          "name": "_party",
          "type": "string"
        },
        {
          "internalType": "string",
          "name": "_symbolUrl",
          "type": "string"
        }
      ],
      "name": "addCandidate",
      "outputs": [],
      "stateMutability": "nonpayable",
      "type": "function"
    },
    {
      "inputs": [
        {
          "internalType": "address[]",
          "name": "_voters",
          "type": "address[]"
        }
      ],
      "name": "whitelistVoter",
      "outputs": [],
      "stateMutability": "nonpayable",
      "type": "function"
    },
    {
      "inputs": [],
      "name": "startVoting",
      "outputs": [],
      "stateMutability": "nonpayable",
      "type": "function"
    },
    {
      "inputs": [
        {
          "internalType": "uint256",
          "name": "_candidateId",
          "type": "uint256"
        }
      ],
      "name": "castVote",
      "outputs": [],
      "stateMutability": "nonpayable",
      "type": "function"
    },
    {
      "inputs": [],
      "name": "endVoting",
      "outputs": [],
      "stateMutability": "nonpayable",
      "type": "function"
    },
    {
      "inputs": [],
      "name": "getCandidates",
      "outputs": [
        {
          "components": [
            {
              "internalType": "uint256",
              "name": "id",
              "type": "uint256"
            },
            {
              "internalType": "string",
              "name": "name",
              "type": "string"
            },
            {
              "internalType": "string",
              "name": "party",
              "type": "string"
            },
            {
              "internalType": "string",
              "name": "symbolUrl",
              "type": "string"
            },
            {
              "internalType": "uint256",
              "name": "voteCount",
              "type": "uint256"
            }
          ],
          "internalType": "struct VotingManagement.Candidate[]",
          "name": "",
          "type": "tuple[]"
        }
      ],
      "stateMutability": "view",
      "type": "function",
      "constant": true
    }
  ],
  "bytecode": "0x608060405234801562000010575f80fd5b50335f73ffffffffffffffffffffffffffffffffffffffff168173ffffffffffffffffffffffffffffffffffffffff160362000085575f6040517f1e4fbdf70000000000000000000000000000000000000000000000000000000081526004016200007c9190620001cd565b60405180910390fd5b6200009681620000c960201b60201c565b505f8060146101000a81548160ff02191690836002811115620000be57620000bd620001e8565b5b021790555062000215565b5f805f9054906101000a900473ffffffffffffffffffffffffffffffffffffffff169050815f806101000a81548173ffffffffffffffffffffffffffffffffffffffff021916908373ffffffffffffffffffffffffffffffffffffffff1602179055508173ffffffffffffffffffffffffffffffffffffffff168173ffffffffffffffffffffffffffffffffffffffff167f8be0079c531659141344cd1fd0a4f28419497f9722a3daafe3b4186f6b6457e060405160405180910390a35050565b5f73ffffffffffffffffffffffffffffffffffffffff82169050919050565b5f620001b5826200018a565b9050919050565b620001c781620001a9565b82525050565b5f602082019050620001e25f830184620001bc565b92915050565b7f4e487b71000000000000000000000000000000000000000000000000000000005f52602160045260245ffd5b611cce80620002235f395ff3fe608060405234801561000f575f80fd5b50600436106100e8575f3560e01c80637de418d51161008a578063c3403ddf11610064578063c3403ddf14610214578063dfb6b1e81461021e578063eca68c351461024e578063f2fde38b1461026a576100e8565b80637de418d5146101bc5780638da5cb5b146101da578063ad71f8dc146101f8576100e8565b80631ec6b60a116100c65780631ec6b60a146101585780633477ee2e146101625780633eb76b9c14610196578063715018a6146101b2576100e8565b806306a49fce146100ec57806309eef43e1461010a5780630c3f6acf1461013a575b5f80fd5b6100f4610286565b60405161010191906111a0565b60405180910390f35b610124600480360381019061011f919061122b565b6104a5565b6040516101319190611270565b60405180910390f35b6101426104c2565b60405161014f91906112fc565b60405180910390f35b6101606104d4565b005b61017c6004803603810190610177919061133f565b6105b6565b60405161018d9594939291906113c1565b60405180910390f35b6101b060048036038101906101ab919061133f565b610789565b005b6101ba610a3e565b005b6101c4610a51565b6040516101d19190611427565b60405180910390f35b6101e2610a57565b6040516101ef919061144f565b60405180910390f35b610212600480360381019061020d9190611594565b610a7e565b005b61021c610be9565b005b6102386004803603810190610233919061122b565b610ccc565b6040516102459190611270565b60405180910390f35b61026860048036038101906102639190611695565b610ce9565b005b610284600480360381019061027f919061122b565b610def565b005b60606003805480602002602001604051908101604052809291908181526020015f905b8282101561049c578382905f5260205f2090600502016040518060a00160405290815f82015481526020016001820180546102e39061170d565b80601f016020809104026020016040519081016040528092919081815260200182805461030f9061170d565b801561035a5780601f106103315761010080835404028352916020019161035a565b820191905f5260205f20905b81548152906001019060200180831161033d57829003601f168201915b505050505081526020016002820180546103739061170d565b80601f016020809104026020016040519081016040528092919081815260200182805461039f9061170d565b80156103ea5780601f106103c1576101008083540402835291602001916103ea565b820191905f5260205f20905b8154815290600101906020018083116103cd57829003601f168201915b505050505081526020016003820180546104039061170d565b80601f016020809104026020016040519081016040528092919081815260200182805461042f9061170d565b801561047a5780601f106104515761010080835404028352916020019161047a565b820191905f5260205f20905b81548152906001019060200180831161045d57829003601f168201915b50505050508152602001600482015481525050815260200190600101906102a9565b50505050905090565b6002602052805f5260405f205f915054906101000a900460ff1681565b5f60149054906101000a900460ff1681565b6104dc610e73565b5f8060028111156104f0576104ef611289565b5b5f60149054906101000a900460ff16600281111561051157610510611289565b5b14610551576040517f08c379a0000000000000000000000000000000000000000000000000000000008152600401610548906117ad565b60405180910390fd5b60015f60146101000a81548160ff0219169083600281111561057657610575611289565b5b02179055507f82aa0cc22cbb103bd5f28a40c65b9e63f2df333bbb70c6c9128eb83d7cb1041d60016040516105ab91906112fc565b60405180910390a150565b600381815481106105c5575f80fd5b905f5260205f2090600502015f91509050805f0154908060010180546105ea9061170d565b80601f01602080910402602001604051908101604052809291908181526020018280546106169061170d565b80156106615780601f1061063857610100808354040283529160200191610661565b820191905f5260205f20905b81548152906001019060200180831161064457829003601f168201915b5050505050908060020180546106769061170d565b80601f01602080910402602001604051908101604052809291908181526020018280546106a29061170d565b80156106ed5780601f106106c4576101008083540402835291602001916106ed565b820191905f5260205f20905b8154815290600101906020018083116106d057829003601f168201915b5050505050908060030180546107029061170d565b80601f016020809104026020016040519081016040528092919081815260200182805461072e9061170d565b80156107795780601f1061075057610100808354040283529160200191610779565b820191905f5260205f20905b81548152906001019060200180831161075c57829003601f168201915b5050505050908060040154905085565b600180600281111561079e5761079d611289565b5b5f60149054906101000a900460ff1660028111156107bf576107be611289565b5b146107ff576040517f08c379a00000000000000000000000000000000000000000000000000000000081526004016107f6906117ad565b60405180910390fd5b60015f3373ffffffffffffffffffffffffffffffffffffffff1673ffffffffffffffffffffffffffffffffffffffff1681526020019081526020015f205f9054906101000a900460ff16610888576040517f08c379a000000000000000000000000000000000000000000000000000000000815260040161087f90611815565b60405180910390fd5b60025f3373ffffffffffffffffffffffffffffffffffffffff1673ffffffffffffffffffffffffffffffffffffffff1681526020019081526020015f205f9054906101000a900460ff1615610912576040517f08c379a00000000000000000000000000000000000000000000000000000000081526004016109099061187d565b60405180910390fd5b6003805490508210610959576040517f08c379a0000000000000000000000000000000000000000000000000000000008152600401610950906118e5565b60405180910390fd5b600160025f3373ffffffffffffffffffffffffffffffffffffffff1673ffffffffffffffffffffffffffffffffffffffff1681526020019081526020015f205f6101000a81548160ff0219169083151502179055506001600383815481106109c4576109c3611903565b5b905f5260205f2090600502016004015f8282546109e1919061195d565b92505081905550600160045f8282546109fa919061195d565b925050819055507fa36cc2bebb74db33e9f88110a07ef56e1b31b24b4c4f51b54b1664266e29f45b3383604051610a32929190611990565b60405180910390a15050565b610a46610e73565b610a4f5f610efa565b565b60045481565b5f805f9054906101000a900473ffffffffffffffffffffffffffffffffffffffff16905090565b610a86610e73565b5f806002811115610a9a57610a99611289565b5b5f60149054906101000a900460ff166002811115610abb57610aba611289565b5b14610afb576040517f08c379a0000000000000000000000000000000000000000000000000000000008152600401610af2906117ad565b60405180910390fd5b5f600380549050905060036040518060a001604052808381526020018781526020018681526020018581526020015f815250908060018154018082558091505060019003905f5260205f2090600502015f909190919091505f820151815f01556020820151816001019081610b709190611b54565b506040820151816002019081610b869190611b54565b506060820151816003019081610b9c9190611b54565b506080820151816004015550507fe83b2a43e7e82d975c8a0a6d2f045153c869e111136a34d1889ab7b598e396a38186604051610bda929190611c23565b60405180910390a15050505050565b610bf1610e73565b6001806002811115610c0657610c05611289565b5b5f60149054906101000a900460ff166002811115610c2757610c26611289565b5b14610c67576040517f08c379a0000000000000000000000000000000000000000000000000000000008152600401610c5e906117ad565b60405180910390fd5b60025f60146101000a81548160ff02191690836002811115610c8c57610c8b611289565b5b02179055507f82aa0cc22cbb103bd5f28a40c65b9e63f2df333bbb70c6c9128eb83d7cb1041d6002604051610cc191906112fc565b60405180910390a150565b6001602052805f5260405f205f915054906101000a900460ff1681565b610cf1610e73565b5f5b82829050811015610dea576001805f858585818110610d1557610d14611903565b5b9050602002016020810190610d2a919061122b565b73ffffffffffffffffffffffffffffffffffffffff1673ffffffffffffffffffffffffffffffffffffffff1681526020019081526020015f205f6101000a81548160ff0219169083151502179055507f73d35f4b5dc2339683083dec639ba37f0f5592fc26de0e0603ac5ba2412cd004838383818110610dad57610dac611903565b5b9050602002016020810190610dc2919061122b565b604051610dcf919061144f565b60405180910390a18080610de290611c51565b915050610cf3565b505050565b610df7610e73565b5f73ffffffffffffffffffffffffffffffffffffffff168173ffffffffffffffffffffffffffffffffffffffff1603610e67575f6040517f1e4fbdf7000000000000000000000000000000000000000000000000000000008152600401610e5e919061144f565b60405180910390fd5b610e7081610efa565b50565b610e7b610fbb565b73ffffffffffffffffffffffffffffffffffffffff16610e99610a57565b73ffffffffffffffffffffffffffffffffffffffff1614610ef857610ebc610fbb565b6040517f118cdaa7000000000000000000000000000000000000000000000000000000008152600401610eef919061144f565b60405180910390fd5b565b5f805f9054906101000a900473ffffffffffffffffffffffffffffffffffffffff169050815f806101000a81548173ffffffffffffffffffffffffffffffffffffffff021916908373ffffffffffffffffffffffffffffffffffffffff1602179055508173ffffffffffffffffffffffffffffffffffffffff168173ffffffffffffffffffffffffffffffffffffffff167f8be0079c531659141344cd1fd0a4f28419497f9722a3daafe3b4186f6b6457e060405160405180910390a35050565b5f33905090565b5f81519050919050565b5f82825260208201905092915050565b5f819050602082019050919050565b5f819050919050565b610ffd81610feb565b82525050565b5f81519050919050565b5f82825260208201905092915050565b5f5b8381101561103a57808201518184015260208101905061101f565b5f8484015250505050565b5f601f19601f8301169050919050565b5f61105f82611003565b611069818561100d565b935061107981856020860161101d565b61108281611045565b840191505092915050565b5f60a083015f8301516110a25f860182610ff4565b50602083015184820360208601526110ba8282611055565b915050604083015184820360408601526110d48282611055565b915050606083015184820360608601526110ee8282611055565b91505060808301516111036080860182610ff4565b508091505092915050565b5f611119838361108d565b905092915050565b5f602082019050919050565b5f61113782610fc2565b6111418185610fcc565b93508360208202850161115385610fdc565b805f5b8581101561118e578484038952815161116f858261110e565b945061117a83611121565b925060208a01995050600181019050611156565b50829750879550505050505092915050565b5f6020820190508181035f8301526111b8818461112d565b905092915050565b5f604051905090565b5f80fd5b5f80fd5b5f73ffffffffffffffffffffffffffffffffffffffff82169050919050565b5f6111fa826111d1565b9050919050565b61120a816111f0565b8114611214575f80fd5b50565b5f8135905061122581611201565b92915050565b5f602082840312156112405761123f6111c9565b5b5f61124d84828501611217565b91505092915050565b5f8115159050919050565b61126a81611256565b82525050565b5f6020820190506112835f830184611261565b92915050565b7f4e487b71000000000000000000000000000000000000000000000000000000005f52602160045260245ffd5b600381106112c7576112c6611289565b5b50565b5f8190506112d7826112b6565b919050565b5f6112e6826112ca565b9050919050565b6112f6816112dc565b82525050565b5f60208201905061130f5f8301846112ed565b92915050565b61131e81610feb565b8114611328575f80fd5b50565b5f8135905061133981611315565b92915050565b5f60208284031215611354576113536111c9565b5b5f6113618482850161132b565b91505092915050565b61137381610feb565b82525050565b5f82825260208201905092915050565b5f61139382611003565b61139d8185611379565b93506113ad81856020860161101d565b6113b681611045565b840191505092915050565b5f60a0820190506113d45f83018861136a565b81810360208301526113e68187611389565b905081810360408301526113fa8186611389565b9050818103606083015261140e8185611389565b905061141d608083018461136a565b9695505050505050565b5f60208201905061143a5f83018461136a565b92915050565b611449816111f0565b82525050565b5f6020820190506114625f830184611440565b92915050565b5f80fd5b5f80fd5b7f4e487b71000000000000000000000000000000000000000000000000000000005f52604160045260245ffd5b6114a682611045565b810181811067ffffffffffffffff821117156114c5576114c4611470565b5b80604052505050565b5f6114d76111c0565b90506114e3828261149d565b919050565b5f67ffffffffffffffff82111561150257611501611470565b5b61150b82611045565b9050602081019050919050565b828183375f83830152505050565b5f611538611533846114e8565b6114ce565b9050828152602081018484840111156115545761155361146c565b5b61155f848285611518565b509392505050565b5f82601f83011261157b5761157a611468565b5b813561158b848260208601611526565b91505092915050565b5f805f606084860312156115ab576115aa6111c9565b5b5f84013567ffffffffffffffff8111156115c8576115c76111cd565b5b6115d486828701611567565b935050602084013567ffffffffffffffff8111156115f5576115f46111cd565b5b61160186828701611567565b925050604084013567ffffffffffffffff811115611622576116216111cd565b5b61162e86828701611567565b9150509250925092565b5f80fd5b5f80fd5b5f8083601f84011261165557611654611468565b5b8235905067ffffffffffffffff81111561167257611671611638565b5b60208301915083602082028301111561168e5761168d61163c565b5b9250929050565b5f80602083850312156116ab576116aa6111c9565b5b5f83013567ffffffffffffffff8111156116c8576116c76111cd565b5b6116d485828601611640565b92509250509250929050565b7f4e487b71000000000000000000000000000000000000000000000000000000005f52602260045260245ffd5b5f600282049050600182168061172457607f821691505b602082108103611737576117366116e0565b5b50919050565b7f496e76616c696420656c656374696f6e20737461746520666f722074686973205f8201527f616374696f6e0000000000000000000000000000000000000000000000000000602082015250565b5f611797602683611379565b91506117a28261173d565b604082019050919050565b5f6020820190508181035f8301526117c48161178b565b9050919050565b7f4e6f74206120766572696669656420766f7465720000000000000000000000005f82015250565b5f6117ff601483611379565b915061180a826117cb565b602082019050919050565b5f6020820190508181035f83015261182c816117f3565b9050919050565b7f416c726561647920766f746564000000000000000000000000000000000000005f82015250565b5f611867600d83611379565b915061187282611833565b602082019050919050565b5f6020820190508181035f8301526118948161185b565b9050919050565b7f496e76616c69642063616e6469646174652049440000000000000000000000005f82015250565b5f6118cf601483611379565b91506118da8261189b565b602082019050919050565b5f6020820190508181035f8301526118fc816118c3565b9050919050565b7f4e487b71000000000000000000000000000000000000000000000000000000005f52603260045260245ffd5b7f4e487b71000000000000000000000000000000000000000000000000000000005f52601160045260245ffd5b5f61196782610feb565b915061197283610feb565b925082820190508082111561198a57611989611930565b5b92915050565b5f6040820190506119a35f830185611440565b6119b0602083018461136a565b9392505050565b5f819050815f5260205f209050919050565b5f6020601f8301049050919050565b5f82821b905092915050565b5f60088302611a137fffffffffffffffffffffffffffffffffffffffffffffffffffffffffffffffff826119d8565b611a1d86836119d8565b95508019841693508086168417925050509392505050565b5f819050919050565b5f611a58611a53611a4e84610feb565b611a35565b610feb565b9050919050565b5f819050919050565b611a7183611a3e565b611a85611a7d82611a5f565b8484546119e4565b825550505050565b5f90565b611a99611a8d565b611aa4818484611a68565b505050565b5b81811015611ac757611abc5f82611a91565b600181019050611aaa565b5050565b601f821115611b0c57611add816119b7565b611ae6846119c9565b81016020851015611af5578190505b611b09611b01856119c9565b830182611aa9565b50505b505050565b5f82821c905092915050565b5f611b2c5f1984600802611b11565b1980831691505092915050565b5f611b448383611b1d565b9150826002028217905092915050565b611b5d82611003565b67ffffffffffffffff811115611b7657611b75611470565b5b611b80825461170d565b611b8b828285611acb565b5f60209050601f831160018114611bbc575f8415611baa578287015190505b611bb48582611b39565b865550611c1b565b601f198416611bca866119b7565b5f5b82811015611bf157848901518255600182019150602085019450602081019050611bcc565b86831015611c0e5784890151611c0a601f891682611b1d565b8355505b6001600288020188555050505b505050505050565b5f604082019050611c365f83018561136a565b8181036020830152611c488184611389565b90509392505050565b5f611c5b82610feb565b91507fffffffffffffffffffffffffffffffffffffffffffffffffffffffffffffffff8203611c8d57611c8c611930565b5b60018201905091905056fea2646970667358221220307a36522f13ecc970f04b12940dbed1266773cecd45cc8acfd267e535d54ff264736f6c63430008150033",
  "immutableReferences": {},
  "source": "// SPDX-License-Identifier: MIT\npragma solidity ^0.8.20;\n\nimport \"@openzeppelin/contracts/access/Ownable.sol\";\n\ncontract VotingManagement is Ownable {\n    enum ElectionState { Registration, VotingLive, Ended }\n\n    ElectionState public currentState;\n    \n    struct Candidate {\n        uint256 id;\n        string name;\n        string party;\n        string symbolUrl;\n        uint256 voteCount;\n    }\n\n    mapping(address => bool) public isVerifiedVoter;\n    mapping(address => bool) public hasVoted;\n    \n    Candidate[] public candidates;\n    uint256 public totalVotesCast;\n\n    event CandidateAdded(uint256 candidateId, string name);\n    event VoterVerified(address voter);\n    event ElectionStateChanged(ElectionState newState);\n    event VoteCast(address voter, uint256 candidateId);\n\n    // Initializing Ownable without arguments in OpenZeppelin 5 requires passing msg.sender to the parent constructor\n    constructor() Ownable(msg.sender) {\n        currentState = ElectionState.Registration;\n    }\n\n    modifier inState(ElectionState state) {\n        require(currentState == state, \"Invalid election state for this action\");\n        _;\n    }\n\n    function addCandidate(string memory _name, string memory _party, string memory _symbolUrl) external onlyOwner inState(ElectionState.Registration) {\n        uint256 newId = candidates.length;\n        candidates.push(Candidate({\n            id: newId,\n            name: _name,\n            party: _party,\n            symbolUrl: _symbolUrl,\n            voteCount: 0\n        }));\n        emit CandidateAdded(newId, _name);\n    }\n\n    function whitelistVoter(address[] calldata _voters) external onlyOwner {\n        for(uint i = 0; i < _voters.length; i++) {\n            isVerifiedVoter[_voters[i]] = true;\n            emit VoterVerified(_voters[i]);\n        }\n    }\n\n    function startVoting() external onlyOwner inState(ElectionState.Registration) {\n        currentState = ElectionState.VotingLive;\n        emit ElectionStateChanged(ElectionState.VotingLive);\n    }\n\n    function castVote(uint256 _candidateId) external inState(ElectionState.VotingLive) {\n        require(isVerifiedVoter[msg.sender], \"Not a verified voter\");\n        require(!hasVoted[msg.sender], \"Already voted\");\n        require(_candidateId < candidates.length, \"Invalid candidate ID\");\n\n        hasVoted[msg.sender] = true;\n        candidates[_candidateId].voteCount += 1;\n        totalVotesCast += 1;\n\n        emit VoteCast(msg.sender, _candidateId);\n    }\n\n    function endVoting() external onlyOwner inState(ElectionState.VotingLive) {\n        currentState = ElectionState.Ended;\n        emit ElectionStateChanged(ElectionState.Ended);\n    }\n\n    function getCandidates() external view returns (Candidate[] memory) {\n        return candidates;\n    }\n}\n",
  "sourcePath": "/home/silence/antigravity/BLockchian-ki-jai/smart-contracts/contracts/VotingManagement.sol",
  "compiler": {
    "name": "solc",
    "version": "0.8.21+commit.d9974bed.Emscripten.clang"
  },
  "schemaVersion": "3.4.16",
  "updatedAt": "2026-02-25T05:53:49.684Z",
  "networkType": "ethereum",
  "devdoc": {
    "errors": {
      "OwnableInvalidOwner(address)": [
        {
          "details": "The owner is not a valid owner account. (eg. `address(0)`)"
        }
      ],
      "OwnableUnauthorizedAccount(address)": [
        {
          "details": "The caller account is not authorized to perform an operation."
        }
      ]
    },
    "kind": "dev",
    "methods": {
      "owner()": {
        "details": "Returns the address of the current owner."
      },
      "renounceOwnership()": {
        "details": "Leaves the contract without owner. It will not be possible to call `onlyOwner` functions. Can only be called by the current owner. NOTE: Renouncing ownership will leave the contract without an owner, thereby disabling any functionality that is only available to the owner."
      },
      "transferOwnership(address)": {
        "details": "Transfers ownership of the contract to a new account (`newOwner`). Can only be called by the current owner."
      }
    },
    "version": 1
  },
  "userdoc": {
    "kind": "user",
    "methods": {},
    "version": 1
  }
}